{
  "_format": "hh-sol-artifact-1",
  "contractName": "chainlinkOnchain",
  "sourceName": "contracts/chainlinkOnchain.sol",
  "abi": [
    {
      "inputs": [
        {
          "internalType": "uint256",
          "name": "updateInterval",
          "type": "uint256"
        },
        {
          "internalType": "address",
          "name": "_pricefeed",
          "type": "address"
        },
        {
          "internalType": "address",
          "name": "_vrfCoordinator",
          "type": "address"
        }
      ],
      "stateMutability": "nonpayable",
      "type": "constructor"
    },
    {
      "inputs": [
        {
          "internalType": "address",
          "name": "have",
          "type": "address"
        },
        {
          "internalType": "address",
          "name": "want",
          "type": "address"
        }
      ],
      "name": "OnlyCoordinatorCanFulfill",
      "type": "error"
    },
    {
      "anonymous": false,
      "inputs": [
        {
          "indexed": true,
          "internalType": "address",
          "name": "owner",
          "type": "address"
        },
        {
          "indexed": true,
          "internalType": "address",
          "name": "approved",
          "type": "address"
        },
        {
          "indexed": true,
          "internalType": "uint256",
          "name": "tokenId",
          "type": "uint256"
        }
      ],
      "name": "Approval",
      "type": "event"
    },
    {
      "anonymous": false,
      "inputs": [
        {
          "indexed": true,
          "internalType": "address",
          "name": "owner",
          "type": "address"
        },
        {
          "indexed": true,
          "internalType": "address",
          "name": "operator",
          "type": "address"
        },
        {
          "indexed": false,
          "internalType": "bool",
          "name": "approved",
          "type": "bool"
        }
      ],
      "name": "ApprovalForAll",
      "type": "event"
    },
    {
      "anonymous": false,
      "inputs": [
        {
          "indexed": true,
          "internalType": "address",
          "name": "previousOwner",
          "type": "address"
        },
        {
          "indexed": true,
          "internalType": "address",
          "name": "newOwner",
          "type": "address"
        }
      ],
      "name": "OwnershipTransferred",
      "type": "event"
    },
    {
      "anonymous": false,
      "inputs": [
        {
          "indexed": false,
          "internalType": "string",
          "name": "marketTrend",
          "type": "string"
        }
      ],
      "name": "TokensUpdated",
      "type": "event"
    },
    {
      "anonymous": false,
      "inputs": [
        {
          "indexed": true,
          "internalType": "address",
          "name": "from",
          "type": "address"
        },
        {
          "indexed": true,
          "internalType": "address",
          "name": "to",
          "type": "address"
        },
        {
          "indexed": true,
          "internalType": "uint256",
          "name": "tokenId",
          "type": "uint256"
        }
      ],
      "name": "Transfer",
      "type": "event"
    },
    {
      "inputs": [
        {
          "internalType": "address",
          "name": "to",
          "type": "address"
        },
        {
          "internalType": "uint256",
          "name": "tokenId",
          "type": "uint256"
        }
      ],
      "name": "approve",
      "outputs": [],
      "stateMutability": "nonpayable",
      "type": "function"
    },
    {
      "inputs": [
        {
          "internalType": "address",
          "name": "owner",
          "type": "address"
        }
      ],
      "name": "balanceOf",
      "outputs": [
        {
          "internalType": "uint256",
          "name": "",
          "type": "uint256"
        }
      ],
      "stateMutability": "view",
      "type": "function"
    },
    {
      "inputs": [
        {
          "internalType": "bytes",
          "name": "",
          "type": "bytes"
        }
      ],
      "name": "checkUpkeep",
      "outputs": [
        {
          "internalType": "bool",
          "name": "upkeepNeeded",
          "type": "bool"
        },
        {
          "internalType": "bytes",
          "name": "",
          "type": "bytes"
        }
      ],
      "stateMutability": "view",
      "type": "function"
    },
    {
      "inputs": [],
      "name": "currentPrice",
      "outputs": [
        {
          "internalType": "int256",
          "name": "",
          "type": "int256"
        }
      ],
      "stateMutability": "view",
      "type": "function"
    },
    {
      "inputs": [
        {
          "internalType": "uint256",
          "name": "tokenId",
          "type": "uint256"
        }
      ],
      "name": "getApproved",
      "outputs": [
        {
          "internalType": "address",
          "name": "",
          "type": "address"
        }
      ],
      "stateMutability": "view",
      "type": "function"
    },
    {
      "inputs": [],
      "name": "getLatestPrice",
      "outputs": [
        {
          "internalType": "int256",
          "name": "",
          "type": "int256"
        }
      ],
      "stateMutability": "view",
      "type": "function"
    },
    {
      "inputs": [],
      "name": "interval",
      "outputs": [
        {
          "internalType": "uint256",
          "name": "",
          "type": "uint256"
        }
      ],
      "stateMutability": "view",
      "type": "function"
    },
    {
      "inputs": [
        {
          "internalType": "address",
          "name": "owner",
          "type": "address"
        },
        {
          "internalType": "address",
          "name": "operator",
          "type": "address"
        }
      ],
      "name": "isApprovedForAll",
      "outputs": [
        {
          "internalType": "bool",
          "name": "",
          "type": "bool"
        }
      ],
      "stateMutability": "view",
      "type": "function"
    },
    {
      "inputs": [],
      "name": "lastTimeStamp",
      "outputs": [
        {
          "internalType": "uint256",
          "name": "",
          "type": "uint256"
        }
      ],
      "stateMutability": "view",
      "type": "function"
    },
    {
      "inputs": [],
      "name": "name",
      "outputs": [
        {
          "internalType": "string",
          "name": "",
          "type": "string"
        }
      ],
      "stateMutability": "view",
      "type": "function"
    },
    {
      "inputs": [],
      "name": "owner",
      "outputs": [
        {
          "internalType": "address",
          "name": "",
          "type": "address"
        }
      ],
      "stateMutability": "view",
      "type": "function"
    },
    {
      "inputs": [
        {
          "internalType": "uint256",
          "name": "tokenId",
          "type": "uint256"
        }
      ],
      "name": "ownerOf",
      "outputs": [
        {
          "internalType": "address",
          "name": "",
          "type": "address"
        }
      ],
      "stateMutability": "view",
      "type": "function"
    },
    {
      "inputs": [
        {
          "internalType": "bytes",
          "name": "",
          "type": "bytes"
        }
      ],
      "name": "performUpkeep",
      "outputs": [],
      "stateMutability": "nonpayable",
      "type": "function"
    },
    {
      "inputs": [],
      "name": "pricefeed",
      "outputs": [
        {
          "internalType": "contract AggregatorV3Interface",
          "name": "",
          "type": "address"
        }
      ],
      "stateMutability": "view",
      "type": "function"
    },
    {
      "inputs": [
        {
          "internalType": "uint256",
          "name": "requestId",
          "type": "uint256"
        },
        {
          "internalType": "uint256[]",
          "name": "randomWords",
          "type": "uint256[]"
        }
      ],
      "name": "rawFulfillRandomWords",
      "outputs": [],
      "stateMutability": "nonpayable",
      "type": "function"
    },
    {
      "inputs": [],
      "name": "renounceOwnership",
      "outputs": [],
      "stateMutability": "nonpayable",
      "type": "function"
    },
    {
      "inputs": [
        {
          "internalType": "uint256",
          "name": "",
          "type": "uint256"
        }
      ],
      "name": "s_randomWords",
      "outputs": [
        {
          "internalType": "uint256",
          "name": "",
          "type": "uint256"
        }
      ],
      "stateMutability": "view",
      "type": "function"
    },
    {
      "inputs": [],
      "name": "s_requestId",
      "outputs": [
        {
          "internalType": "uint256",
          "name": "",
          "type": "uint256"
        }
      ],
      "stateMutability": "view",
      "type": "function"
    },
    {
      "inputs": [
        {
          "internalType": "address",
          "name": "to",
          "type": "address"
        }
      ],
      "name": "safeMint",
      "outputs": [],
      "stateMutability": "nonpayable",
      "type": "function"
    },
    {
      "inputs": [
        {
          "internalType": "address",
          "name": "from",
          "type": "address"
        },
        {
          "internalType": "address",
          "name": "to",
          "type": "address"
        },
        {
          "internalType": "uint256",
          "name": "tokenId",
          "type": "uint256"
        }
      ],
      "name": "safeTransferFrom",
      "outputs": [],
      "stateMutability": "nonpayable",
      "type": "function"
    },
    {
      "inputs": [
        {
          "internalType": "address",
          "name": "from",
          "type": "address"
        },
        {
          "internalType": "address",
          "name": "to",
          "type": "address"
        },
        {
          "internalType": "uint256",
          "name": "tokenId",
          "type": "uint256"
        },
        {
          "internalType": "bytes",
          "name": "data",
          "type": "bytes"
        }
      ],
      "name": "safeTransferFrom",
      "outputs": [],
      "stateMutability": "nonpayable",
      "type": "function"
    },
    {
      "inputs": [
        {
          "internalType": "address",
          "name": "operator",
          "type": "address"
        },
        {
          "internalType": "bool",
          "name": "approved",
          "type": "bool"
        }
      ],
      "name": "setApprovalForAll",
      "outputs": [],
      "stateMutability": "nonpayable",
      "type": "function"
    },
    {
      "inputs": [
        {
          "internalType": "uint256",
          "name": "newInterval",
          "type": "uint256"
        }
      ],
      "name": "setInterval",
      "outputs": [],
      "stateMutability": "nonpayable",
      "type": "function"
    },
    {
      "inputs": [
        {
          "internalType": "address",
          "name": "newFeed",
          "type": "address"
        }
      ],
      "name": "setPriceFeed",
      "outputs": [],
      "stateMutability": "nonpayable",
      "type": "function"
    },
    {
      "inputs": [
        {
          "internalType": "uint64",
          "name": "newId",
          "type": "uint64"
        }
      ],
      "name": "setSubscriptionId",
      "outputs": [],
      "stateMutability": "nonpayable",
      "type": "function"
    },
    {
      "inputs": [
        {
          "internalType": "bytes4",
          "name": "interfaceId",
          "type": "bytes4"
        }
      ],
      "name": "supportsInterface",
      "outputs": [
        {
          "internalType": "bool",
          "name": "",
          "type": "bool"
        }
      ],
      "stateMutability": "view",
      "type": "function"
    },
    {
      "inputs": [],
      "name": "symbol",
      "outputs": [
        {
          "internalType": "string",
          "name": "",
          "type": "string"
        }
      ],
      "stateMutability": "view",
      "type": "function"
    },
    {
      "inputs": [
        {
          "internalType": "uint256",
          "name": "index",
          "type": "uint256"
        }
      ],
      "name": "tokenByIndex",
      "outputs": [
        {
          "internalType": "uint256",
          "name": "",
          "type": "uint256"
        }
      ],
      "stateMutability": "view",
      "type": "function"
    },
    {
      "inputs": [
        {
          "internalType": "address",
          "name": "owner",
          "type": "address"
        },
        {
          "internalType": "uint256",
          "name": "index",
          "type": "uint256"
        }
      ],
      "name": "tokenOfOwnerByIndex",
      "outputs": [
        {
          "internalType": "uint256",
          "name": "",
          "type": "uint256"
        }
      ],
      "stateMutability": "view",
      "type": "function"
    },
    {
      "inputs": [
        {
          "internalType": "uint256",
          "name": "tokenId",
          "type": "uint256"
        }
      ],
      "name": "tokenURI",
      "outputs": [
        {
          "internalType": "string",
          "name": "",
          "type": "string"
        }
      ],
      "stateMutability": "view",
      "type": "function"
    },
    {
      "inputs": [],
      "name": "totalSupply",
      "outputs": [
        {
          "internalType": "uint256",
          "name": "",
          "type": "uint256"
        }
      ],
      "stateMutability": "view",
      "type": "function"
    },
    {
      "inputs": [
        {
          "internalType": "address",
          "name": "from",
          "type": "address"
        },
        {
          "internalType": "address",
          "name": "to",
          "type": "address"
        },
        {
          "internalType": "uint256",
          "name": "tokenId",
          "type": "uint256"
        }
      ],
      "name": "transferFrom",
      "outputs": [],
      "stateMutability": "nonpayable",
      "type": "function"
    },
    {
      "inputs": [
        {
          "internalType": "address",
          "name": "newOwner",
          "type": "address"
        }
      ],
      "name": "transferOwnership",
      "outputs": [],
      "stateMutability": "nonpayable",
      "type": "function"
    }
  ],
  "bytecode": "0x60a06040527f79d3d8832d904592c0bf9818b621522c988bb8b0c05cdc3b15aea1b6e8db0c1560001b6014556207a120601560006101000a81548163ffffffff021916908363ffffffff1602179055506003601560046101000a81548161ffff021916908361ffff1602179055506001601560066101000a81548163ffffffff021916908363ffffffff16021790555060405180606001604052806040518060800160405280605c815260200162005b1f605c913981526020016040518060800160405280605c815260200162005c35605c913981526020016040518060800160405280605d815260200162005ac2605d9139815250601790600362000107929190620004e8565b5060405180606001604052806040518060800160405280605d815260200162005bd8605d913981526020016040518060800160405280605d815260200162005c91605d913981526020016040518060800160405280605d815260200162005b7b605d9139815250601890600362000180929190620004e8565b503480156200018e57600080fd5b5060405162005cee38038062005cee8339818101604052810190620001b491906200067a565b806040518060400160405280601081526020017f636861696e6c696e6b4f6e636861696e000000000000000000000000000000008152506040518060400160405280600481526020017f636c6f6300000000000000000000000000000000000000000000000000000000815250816000908162000232919062000946565b50806001908162000244919062000946565b505050620002676200025b6200037660201b60201c565b6200037e60201b60201c565b8073ffffffffffffffffffffffffffffffffffffffff1660808173ffffffffffffffffffffffffffffffffffffffff16815250505082600e8190555042600f81905550610b54601160146101000a81548167ffffffffffffffff021916908367ffffffffffffffff16021790555080601160006101000a81548173ffffffffffffffffffffffffffffffffffffffff021916908373ffffffffffffffffffffffffffffffffffffffff16021790555081600d60006101000a81548173ffffffffffffffffffffffffffffffffffffffff021916908373ffffffffffffffffffffffffffffffffffffffff160217905550620003676200044460201b60201c565b60108190555050505062000b37565b600033905090565b6000600b60009054906101000a900473ffffffffffffffffffffffffffffffffffffffff16905081600b60006101000a81548173ffffffffffffffffffffffffffffffffffffffff021916908373ffffffffffffffffffffffffffffffffffffffff1602179055508173ffffffffffffffffffffffffffffffffffffffff168173ffffffffffffffffffffffffffffffffffffffff167f8be0079c531659141344cd1fd0a4f28419497f9722a3daafe3b4186f6b6457e060405160405180910390a35050565b600080600d60009054906101000a900473ffffffffffffffffffffffffffffffffffffffff1673ffffffffffffffffffffffffffffffffffffffff1663feaf968c6040518163ffffffff1660e01b815260040160a060405180830381865afa158015620004b5573d6000803e3d6000fd5b505050506040513d601f19601f82011682018060405250810190620004db919062000aaf565b5050509150508091505090565b82805482825590600052602060002090810192821562000535579160200282015b828111156200053457825182908162000523919062000946565b509160200191906001019062000509565b5b50905062000544919062000548565b5090565b5b808211156200056c576000818162000562919062000570565b5060010162000549565b5090565b5080546200057e906200073f565b6000825580601f10620005925750620005b3565b601f016020900490600052602060002090810190620005b29190620005b6565b5b50565b5b80821115620005d1576000816000905550600101620005b7565b5090565b600080fd5b6000819050919050565b620005ef81620005da565b8114620005fb57600080fd5b50565b6000815190506200060f81620005e4565b92915050565b600073ffffffffffffffffffffffffffffffffffffffff82169050919050565b6000620006428262000615565b9050919050565b620006548162000635565b81146200066057600080fd5b50565b600081519050620006748162000649565b92915050565b600080600060608486031215620006965762000695620005d5565b5b6000620006a686828701620005fe565b9350506020620006b98682870162000663565b9250506040620006cc8682870162000663565b9150509250925092565b600081519050919050565b7f4e487b7100000000000000000000000000000000000000000000000000000000600052604160045260246000fd5b7f4e487b7100000000000000000000000000000000000000000000000000000000600052602260045260246000fd5b600060028204905060018216806200075857607f821691505b6020821081036200076e576200076d62000710565b5b50919050565b60008190508160005260206000209050919050565b60006020601f8301049050919050565b600082821b905092915050565b600060088302620007d87fffffffffffffffffffffffffffffffffffffffffffffffffffffffffffffffff8262000799565b620007e4868362000799565b95508019841693508086168417925050509392505050565b6000819050919050565b600062000827620008216200081b84620005da565b620007fc565b620005da565b9050919050565b6000819050919050565b620008438362000806565b6200085b62000852826200082e565b848454620007a6565b825550505050565b600090565b6200087262000863565b6200087f81848462000838565b505050565b5b81811015620008a7576200089b60008262000868565b60018101905062000885565b5050565b601f821115620008f657620008c08162000774565b620008cb8462000789565b81016020851015620008db578190505b620008f3620008ea8562000789565b83018262000884565b50505b505050565b600082821c905092915050565b60006200091b60001984600802620008fb565b1980831691505092915050565b600062000936838362000908565b9150826002028217905092915050565b6200095182620006d6565b67ffffffffffffffff8111156200096d576200096c620006e1565b5b6200097982546200073f565b62000986828285620008ab565b600060209050601f831160018114620009be5760008415620009a9578287015190505b620009b5858262000928565b86555062000a25565b601f198416620009ce8662000774565b60005b82811015620009f857848901518255600182019150602085019450602081019050620009d1565b8683101562000a18578489015162000a14601f89168262000908565b8355505b6001600288020188555050505b505050505050565b600069ffffffffffffffffffff82169050919050565b62000a4e8162000a2d565b811462000a5a57600080fd5b50565b60008151905062000a6e8162000a43565b92915050565b6000819050919050565b62000a898162000a74565b811462000a9557600080fd5b50565b60008151905062000aa98162000a7e565b92915050565b600080600080600060a0868803121562000ace5762000acd620005d5565b5b600062000ade8882890162000a5d565b955050602062000af18882890162000a98565b945050604062000b0488828901620005fe565b935050606062000b1788828901620005fe565b925050608062000b2a8882890162000a5d565b9150509295509295909350565b608051614f6862000b5a6000396000818161087701526108cb0152614f686000f3fe608060405234801561001057600080fd5b50600436106101fb5760003560e01c80636e04ff0d1161011a5780639d1b464a116100ad578063e89e106a1161007c578063e89e106a146105b1578063e985e9c5146105cf578063ea7b4f77146105ff578063f2fde38b1461061b578063f6eaffc814610637576101fb565b80639d1b464a1461052b578063a22cb46514610549578063b88d4fde14610565578063c87b56dd14610581576101fb565b80638da5cb5b116100e95780638da5cb5b146104b35780638e15f473146104d1578063947a36fb146104ef57806395d89b411461050d576101fb565b80636e04ff0d1461042c57806370a082311461045d578063715018a61461048d578063724e78da14610497576101fb565b80632f745c59116101925780634585e33b116101615780634585e33b146103925780634f6ccce7146103ae578063590f2113146103de5780636352211e146103fc576101fb565b80632f745c591461030c5780633f3b3b271461033c57806340d097c31461035a57806342842e0e14610376576101fb565b806318160ddd116101ce57806318160ddd1461029a5780631fe543e3146102b857806322a90082146102d457806323b872dd146102f0576101fb565b806301ffc9a71461020057806306fdde0314610230578063081812fc1461024e578063095ea7b31461027e575b600080fd5b61021a600480360381019061021591906134b7565b610667565b60405161022791906134ff565b60405180910390f35b610238610679565b60405161024591906135aa565b60405180910390f35b61026860048036038101906102639190613602565b61070b565b6040516102759190613670565b60405180910390f35b610298600480360381019061029391906136b7565b610751565b005b6102a2610868565b6040516102af9190613706565b60405180910390f35b6102d260048036038101906102cd9190613869565b610875565b005b6102ee60048036038101906102e99190613602565b610935565b005b61030a600480360381019061030591906138c5565b610947565b005b610326600480360381019061032191906136b7565b6109a7565b6040516103339190613706565b60405180910390f35b610344610a4c565b6040516103519190613706565b60405180910390f35b610374600480360381019061036f9190613918565b610a52565b005b610390600480360381019061038b91906138c5565b610ba5565b005b6103ac60048036038101906103a791906139a0565b610bc5565b005b6103c860048036038101906103c39190613602565b610daf565b6040516103d59190613706565b60405180910390f35b6103e6610e20565b6040516103f39190613a4c565b60405180910390f35b61041660048036038101906104119190613602565b610e46565b6040516104239190613670565b60405180910390f35b610446600480360381019061044191906139a0565b610ecc565b604051610454929190613abc565b60405180910390f35b61047760048036038101906104729190613918565b610eeb565b6040516104849190613706565b60405180910390f35b610495610fa2565b005b6104b160048036038101906104ac9190613918565b610fb6565b005b6104bb611002565b6040516104c89190613670565b60405180910390f35b6104d961102c565b6040516104e69190613b05565b60405180910390f35b6104f76110cd565b6040516105049190613706565b60405180910390f35b6105156110d3565b60405161052291906135aa565b60405180910390f35b610533611165565b6040516105409190613b05565b60405180910390f35b610563600480360381019061055e9190613b4c565b61116b565b005b61057f600480360381019061057a9190613c41565b611181565b005b61059b60048036038101906105969190613602565b6111e3565b6040516105a891906135aa565b60405180910390f35b6105b96111f5565b6040516105c69190613706565b60405180910390f35b6105e960048036038101906105e49190613cc4565b6111fb565b6040516105f691906134ff565b60405180910390f35b61061960048036038101906106149190613d44565b61128f565b005b61063560048036038101906106309190613918565b6112c3565b005b610651600480360381019061064c9190613602565b611346565b60405161065e9190613706565b60405180910390f35b60006106728261136a565b9050919050565b60606000805461068890613da0565b80601f01602080910402602001604051908101604052809291908181526020018280546106b490613da0565b80156107015780601f106106d657610100808354040283529160200191610701565b820191906000526020600020905b8154815290600101906020018083116106e457829003601f168201915b5050505050905090565b6000610716826113e4565b6004600083815260200190815260200160002060009054906101000a900473ffffffffffffffffffffffffffffffffffffffff169050919050565b600061075c82610e46565b90508073ffffffffffffffffffffffffffffffffffffffff168373ffffffffffffffffffffffffffffffffffffffff16036107cc576040517f08c379a00000000000000000000000000000000000000000000000000000000081526004016107c390613e43565b60405180910390fd5b8073ffffffffffffffffffffffffffffffffffffffff166107eb61142f565b73ffffffffffffffffffffffffffffffffffffffff16148061081a57506108198161081461142f565b6111fb565b5b610859576040517f08c379a000000000000000000000000000000000000000000000000000000000815260040161085090613ed5565b60405180910390fd5b6108638383611437565b505050565b6000600880549050905090565b7f000000000000000000000000000000000000000000000000000000000000000073ffffffffffffffffffffffffffffffffffffffff163373ffffffffffffffffffffffffffffffffffffffff161461092757337f00000000000000000000000000000000000000000000000000000000000000006040517f1cf993f400000000000000000000000000000000000000000000000000000000815260040161091e929190613ef5565b60405180910390fd5b61093182826114f0565b5050565b61093d611545565b80600e8190555050565b61095861095261142f565b826115c3565b610997576040517f08c379a000000000000000000000000000000000000000000000000000000000815260040161098e90613f90565b60405180910390fd5b6109a2838383611658565b505050565b60006109b283610eeb565b82106109f3576040517f08c379a00000000000000000000000000000000000000000000000000000000081526004016109ea90614022565b60405180910390fd5b600660008473ffffffffffffffffffffffffffffffffffffffff1673ffffffffffffffffffffffffffffffffffffffff168152602001908152602001600020600083815260200190815260200160002054905092915050565b600f5481565b6000610a5e600c611951565b9050610a6a600c61195f565b610a748282611975565b60006017600081548110610a8b57610a8a614042565b5b906000526020600020018054610aa090613da0565b80601f0160208091040260200160405190810160405280929190818152602001828054610acc90613da0565b8015610b195780601f10610aee57610100808354040283529160200191610b19565b820191906000526020600020905b815481529060010190602001808311610afc57829003601f168201915b50505050509050610b2a8282611993565b610ba06040518060400160405280601581526020017f444f4e45212121206d696e74656420746f6b656e200000000000000000000000815250836040518060400160405280601981526020017f20616e642061737369676e656420746f6b656e2075726c3a200000000000000081525084611a00565b505050565b610bc083838360405180602001604052806000815250611181565b505050565b600e54600f5442610bd691906140a0565b1115610d675742600f819055506000610bed61102c565b90506010548103610c3c57610c366040518060400160405280601781526020017f4e4f204348414e4745202d3e2072657475726e696e6721000000000000000000815250611aa2565b50610dab565b601054811215610cce57610c846040518060400160405280600d81526020017f49545320424541522054494d4500000000000000000000000000000000000000815250611aa2565b6040518060400160405280600481526020017f626561720000000000000000000000000000000000000000000000000000000081525060169081610cc89190614276565b50610d52565b610d0c6040518060400160405280600d81526020017f4954532042554c4c2054494d4500000000000000000000000000000000000000815250611aa2565b6040518060400160405280600481526020017f62756c6c0000000000000000000000000000000000000000000000000000000081525060169081610d509190614276565b505b610d5a611b3b565b8060108190555050610daa565b610da56040518060400160405280601181526020017f20494e54455256414c204e4f5420555021000000000000000000000000000000815250611aa2565b610dab565b5b5050565b6000610db9610868565b8210610dfa576040517f08c379a0000000000000000000000000000000000000000000000000000000008152600401610df1906143ba565b60405180910390fd5b60088281548110610e0e57610e0d614042565b5b90600052602060002001549050919050565b600d60009054906101000a900473ffffffffffffffffffffffffffffffffffffffff1681565b600080610e5283611c35565b9050600073ffffffffffffffffffffffffffffffffffffffff168173ffffffffffffffffffffffffffffffffffffffff1603610ec3576040517f08c379a0000000000000000000000000000000000000000000000000000000008152600401610eba90614426565b60405180910390fd5b80915050919050565b60006060600e54600f5442610ee191906140a0565b1191509250929050565b60008073ffffffffffffffffffffffffffffffffffffffff168273ffffffffffffffffffffffffffffffffffffffff1603610f5b576040517f08c379a0000000000000000000000000000000000000000000000000000000008152600401610f52906144b8565b60405180910390fd5b600360008373ffffffffffffffffffffffffffffffffffffffff1673ffffffffffffffffffffffffffffffffffffffff168152602001908152602001600020549050919050565b610faa611545565b610fb46000611c72565b565b610fbe611545565b80600d60006101000a81548173ffffffffffffffffffffffffffffffffffffffff021916908373ffffffffffffffffffffffffffffffffffffffff16021790555050565b6000600b60009054906101000a900473ffffffffffffffffffffffffffffffffffffffff16905090565b600080600d60009054906101000a900473ffffffffffffffffffffffffffffffffffffffff1673ffffffffffffffffffffffffffffffffffffffff1663feaf968c6040518163ffffffff1660e01b815260040160a060405180830381865afa15801561109c573d6000803e3d6000fd5b505050506040513d601f19601f820116820180604052508101906110c0919061455b565b5050509150508091505090565b600e5481565b6060600180546110e290613da0565b80601f016020809104026020016040519081016040528092919081815260200182805461110e90613da0565b801561115b5780601f106111305761010080835404028352916020019161115b565b820191906000526020600020905b81548152906001019060200180831161113e57829003601f168201915b5050505050905090565b60105481565b61117d61117661142f565b8383611d38565b5050565b61119261118c61142f565b836115c3565b6111d1576040517f08c379a00000000000000000000000000000000000000000000000000000000081526004016111c890613f90565b60405180910390fd5b6111dd84848484611ea4565b50505050565b60606111ee82611f00565b9050919050565b60135481565b6000600560008473ffffffffffffffffffffffffffffffffffffffff1673ffffffffffffffffffffffffffffffffffffffff16815260200190815260200160002060008373ffffffffffffffffffffffffffffffffffffffff1673ffffffffffffffffffffffffffffffffffffffff16815260200190815260200160002060009054906101000a900460ff16905092915050565b611297611545565b80601160146101000a81548167ffffffffffffffff021916908367ffffffffffffffff16021790555050565b6112cb611545565b600073ffffffffffffffffffffffffffffffffffffffff168173ffffffffffffffffffffffffffffffffffffffff160361133a576040517f08c379a000000000000000000000000000000000000000000000000000000000815260040161133190614648565b60405180910390fd5b61134381611c72565b50565b6012818154811061135657600080fd5b906000526020600020016000915090505481565b60007f780e9d63000000000000000000000000000000000000000000000000000000007bffffffffffffffffffffffffffffffffffffffffffffffffffffffff1916827bffffffffffffffffffffffffffffffffffffffffffffffffffffffff191614806113dd57506113dc82612012565b5b9050919050565b6113ed816120f4565b61142c576040517f08c379a000000000000000000000000000000000000000000000000000000000815260040161142390614426565b60405180910390fd5b50565b600033905090565b816004600083815260200190815260200160002060006101000a81548173ffffffffffffffffffffffffffffffffffffffff021916908373ffffffffffffffffffffffffffffffffffffffff160217905550808273ffffffffffffffffffffffffffffffffffffffff166114aa83610e46565b73ffffffffffffffffffffffffffffffffffffffff167f8c5be1e5ebec7d5bd14f71427d1e84f3dd0314c0f7b2291e5b200ac8c7c3b92560405160405180910390a45050565b80601290805190602001906115069291906133e1565b506000600360126000815481106115205761151f614042565b5b90600052602060002001546115359190614697565b905061154081612135565b505050565b61154d61142f565b73ffffffffffffffffffffffffffffffffffffffff1661156b611002565b73ffffffffffffffffffffffffffffffffffffffff16146115c1576040517f08c379a00000000000000000000000000000000000000000000000000000000081526004016115b890614714565b60405180910390fd5b565b6000806115cf83610e46565b90508073ffffffffffffffffffffffffffffffffffffffff168473ffffffffffffffffffffffffffffffffffffffff161480611611575061161081856111fb565b5b8061164f57508373ffffffffffffffffffffffffffffffffffffffff166116378461070b565b73ffffffffffffffffffffffffffffffffffffffff16145b91505092915050565b8273ffffffffffffffffffffffffffffffffffffffff1661167882610e46565b73ffffffffffffffffffffffffffffffffffffffff16146116ce576040517f08c379a00000000000000000000000000000000000000000000000000000000081526004016116c5906147a6565b60405180910390fd5b600073ffffffffffffffffffffffffffffffffffffffff168273ffffffffffffffffffffffffffffffffffffffff160361173d576040517f08c379a000000000000000000000000000000000000000000000000000000000815260040161173490614838565b60405180910390fd5b61174a83838360016125f2565b8273ffffffffffffffffffffffffffffffffffffffff1661176a82610e46565b73ffffffffffffffffffffffffffffffffffffffff16146117c0576040517f08c379a00000000000000000000000000000000000000000000000000000000081526004016117b7906147a6565b60405180910390fd5b6004600082815260200190815260200160002060006101000a81549073ffffffffffffffffffffffffffffffffffffffff02191690556001600360008573ffffffffffffffffffffffffffffffffffffffff1673ffffffffffffffffffffffffffffffffffffffff168152602001908152602001600020600082825403925050819055506001600360008473ffffffffffffffffffffffffffffffffffffffff1673ffffffffffffffffffffffffffffffffffffffff16815260200190815260200160002060008282540192505081905550816002600083815260200190815260200160002060006101000a81548173ffffffffffffffffffffffffffffffffffffffff021916908373ffffffffffffffffffffffffffffffffffffffff160217905550808273ffffffffffffffffffffffffffffffffffffffff168473ffffffffffffffffffffffffffffffffffffffff167fddf252ad1be2c89b69c2b068fc378daa952ba7f163c4a11628f55a4df523b3ef60405160405180910390a461194c8383836001612604565b505050565b600081600001549050919050565b6001816000016000828254019250508190555050565b61198f82826040518060200160405280600081525061260a565b5050565b61199c826120f4565b6119db576040517f08c379a00000000000000000000000000000000000000000000000000000000081526004016119d2906148ca565b60405180910390fd5b80600a600084815260200190815260200160002090816119fb9190614276565b505050565b611a9c84848484604051602401611a1a94939291906148ea565b6040516020818303038152906040527f5ab84e1f000000000000000000000000000000000000000000000000000000007bffffffffffffffffffffffffffffffffffffffffffffffffffffffff19166020820180517bffffffffffffffffffffffffffffffffffffffffffffffffffffffff8381831617835250505050612665565b50505050565b611b3881604051602401611ab691906135aa565b6040516020818303038152906040527f41304fac000000000000000000000000000000000000000000000000000000007bffffffffffffffffffffffffffffffffffffffffffffffffffffffff19166020820180517bffffffffffffffffffffffffffffffffffffffffffffffffffffffff8381831617835250505050612665565b50565b601160009054906101000a900473ffffffffffffffffffffffffffffffffffffffff1673ffffffffffffffffffffffffffffffffffffffff16635d3b1d30601454601160149054906101000a900467ffffffffffffffff16601560049054906101000a900461ffff16601560009054906101000a900463ffffffff16601560069054906101000a900463ffffffff166040518663ffffffff1660e01b8152600401611bea9594939291906149a8565b6020604051808303816000875af1158015611c09573d6000803e3d6000fd5b505050506040513d601f19601f82011682018060405250810190611c2d91906149fb565b601381905550565b60006002600083815260200190815260200160002060009054906101000a900473ffffffffffffffffffffffffffffffffffffffff169050919050565b6000600b60009054906101000a900473ffffffffffffffffffffffffffffffffffffffff16905081600b60006101000a81548173ffffffffffffffffffffffffffffffffffffffff021916908373ffffffffffffffffffffffffffffffffffffffff1602179055508173ffffffffffffffffffffffffffffffffffffffff168173ffffffffffffffffffffffffffffffffffffffff167f8be0079c531659141344cd1fd0a4f28419497f9722a3daafe3b4186f6b6457e060405160405180910390a35050565b8173ffffffffffffffffffffffffffffffffffffffff168373ffffffffffffffffffffffffffffffffffffffff1603611da6576040517f08c379a0000000000000000000000000000000000000000000000000000000008152600401611d9d90614a74565b60405180910390fd5b80600560008573ffffffffffffffffffffffffffffffffffffffff1673ffffffffffffffffffffffffffffffffffffffff16815260200190815260200160002060008473ffffffffffffffffffffffffffffffffffffffff1673ffffffffffffffffffffffffffffffffffffffff16815260200190815260200160002060006101000a81548160ff0219169083151502179055508173ffffffffffffffffffffffffffffffffffffffff168373ffffffffffffffffffffffffffffffffffffffff167f17307eab39ab6107e8899845ad3d59bd9653f200f220920489ca2b5937696c3183604051611e9791906134ff565b60405180910390a3505050565b611eaf848484611658565b611ebb8484848461268e565b611efa576040517f08c379a0000000000000000000000000000000000000000000000000000000008152600401611ef190614b06565b60405180910390fd5b50505050565b6060611f0b826113e4565b6000600a60008481526020019081526020016000208054611f2b90613da0565b80601f0160208091040260200160405190810160405280929190818152602001828054611f5790613da0565b8015611fa45780601f10611f7957610100808354040283529160200191611fa4565b820191906000526020600020905b815481529060010190602001808311611f8757829003601f168201915b505050505090506000611fb5612815565b90506000815103611fca57819250505061200d565b600082511115611fff578082604051602001611fe7929190614b62565b6040516020818303038152906040529250505061200d565b6120088461282c565b925050505b919050565b60007f80ac58cd000000000000000000000000000000000000000000000000000000007bffffffffffffffffffffffffffffffffffffffffffffffffffffffff1916827bffffffffffffffffffffffffffffffffffffffffffffffffffffffff191614806120dd57507f5b5e139f000000000000000000000000000000000000000000000000000000007bffffffffffffffffffffffffffffffffffffffffffffffffffffffff1916827bffffffffffffffffffffffffffffffffffffffffffffffffffffffff1916145b806120ed57506120ec82612894565b5b9050919050565b60008073ffffffffffffffffffffffffffffffffffffffff1661211683611c35565b73ffffffffffffffffffffffffffffffffffffffff1614159050919050565b6121fe6040518060400160405280600481526020017f62656172000000000000000000000000000000000000000000000000000000008152506016805461217b90613da0565b80601f01602080910402602001604051908101604052809291908181526020018280546121a790613da0565b80156121f45780601f106121c9576101008083540402835291602001916121f4565b820191906000526020600020905b8154815290600101906020018083116121d757829003601f168201915b50505050506128fe565b156123df576123026040518060400160405280601a81526020017f205550444154494e4720544f4b454e20555249532057495448200000000000008152506040518060400160405280600481526020017f62656172000000000000000000000000000000000000000000000000000000008152506016805461227f90613da0565b80601f01602080910402602001604051908101604052809291908181526020018280546122ab90613da0565b80156122f85780601f106122cd576101008083540402835291602001916122f8565b820191906000526020600020905b8154815290600101906020018083116122db57829003601f168201915b5050505050612957565b60005b61230f600c611951565b8110156123d9576123c6816018848154811061232e5761232d614042565b5b90600052602060002001805461234390613da0565b80601f016020809104026020016040519081016040528092919081815260200182805461236f90613da0565b80156123bc5780601f10612391576101008083540402835291602001916123bc565b820191906000526020600020905b81548152906001019060200180831161239f57829003601f168201915b5050505050611993565b80806123d190614b86565b915050612305565b506125b7565b6124de6040518060400160405280601a81526020017f205550444154494e4720544f4b454e20555249532057495448200000000000008152506040518060400160405280600481526020017f62756c6c000000000000000000000000000000000000000000000000000000008152506016805461245b90613da0565b80601f016020809104026020016040519081016040528092919081815260200182805461248790613da0565b80156124d45780601f106124a9576101008083540402835291602001916124d4565b820191906000526020600020905b8154815290600101906020018083116124b757829003601f168201915b5050505050612957565b60005b6124eb600c611951565b8110156125b5576125a2816017848154811061250a57612509614042565b5b90600052602060002001805461251f90613da0565b80601f016020809104026020016040519081016040528092919081815260200182805461254b90613da0565b80156125985780601f1061256d57610100808354040283529160200191612598565b820191906000526020600020905b81548152906001019060200180831161257b57829003601f168201915b5050505050611993565b80806125ad90614b86565b9150506124e1565b505b7f1cd67277dcd039d660f99499bdb46e90175d6160e3f9ab788a032b7a1ad2356a60166040516125e79190614c52565b60405180910390a150565b6125fe848484846129f6565b50505050565b50505050565b6126148383612b54565b612621600084848461268e565b612660576040517f08c379a000000000000000000000000000000000000000000000000000000000815260040161265790614b06565b60405180910390fd5b505050565b60008151905060006a636f6e736f6c652e6c6f679050602083016000808483855afa5050505050565b60006126af8473ffffffffffffffffffffffffffffffffffffffff16612d71565b15612808578373ffffffffffffffffffffffffffffffffffffffff1663150b7a026126d861142f565b8786866040518563ffffffff1660e01b81526004016126fa9493929190614c74565b6020604051808303816000875af192505050801561273657506040513d601f19601f820116820180604052508101906127339190614cd5565b60015b6127b8573d8060008114612766576040519150601f19603f3d011682016040523d82523d6000602084013e61276b565b606091505b5060008151036127b0576040517f08c379a00000000000000000000000000000000000000000000000000000000081526004016127a790614b06565b60405180910390fd5b805181602001fd5b63150b7a0260e01b7bffffffffffffffffffffffffffffffffffffffffffffffffffffffff1916817bffffffffffffffffffffffffffffffffffffffffffffffffffffffff19161491505061280d565b600190505b949350505050565b606060405180602001604052806000815250905090565b6060612837826113e4565b6000612841612815565b90506000815111612861576040518060200160405280600081525061288c565b8061286b84612d94565b60405160200161287c929190614b62565b6040516020818303038152906040525b915050919050565b60007f01ffc9a7000000000000000000000000000000000000000000000000000000007bffffffffffffffffffffffffffffffffffffffffffffffffffffffff1916827bffffffffffffffffffffffffffffffffffffffffffffffffffffffff1916149050919050565b6000816040516020016129119190614d02565b60405160208183030381529060405280519060200120836040516020016129389190614d02565b6040516020818303038152906040528051906020012014905092915050565b6129f183838360405160240161296f93929190614d19565b6040516020818303038152906040527f2ced7cef000000000000000000000000000000000000000000000000000000007bffffffffffffffffffffffffffffffffffffffffffffffffffffffff19166020820180517bffffffffffffffffffffffffffffffffffffffffffffffffffffffff8381831617835250505050612665565b505050565b612a0284848484612e62565b6001811115612a46576040517f08c379a0000000000000000000000000000000000000000000000000000000008152600401612a3d90614dd7565b60405180910390fd5b6000829050600073ffffffffffffffffffffffffffffffffffffffff168573ffffffffffffffffffffffffffffffffffffffff1603612a8d57612a8881612f88565b612acc565b8373ffffffffffffffffffffffffffffffffffffffff168573ffffffffffffffffffffffffffffffffffffffff1614612acb57612aca8582612fd1565b5b5b600073ffffffffffffffffffffffffffffffffffffffff168473ffffffffffffffffffffffffffffffffffffffff1603612b0e57612b098161313e565b612b4d565b8473ffffffffffffffffffffffffffffffffffffffff168473ffffffffffffffffffffffffffffffffffffffff1614612b4c57612b4b848261320f565b5b5b5050505050565b600073ffffffffffffffffffffffffffffffffffffffff168273ffffffffffffffffffffffffffffffffffffffff1603612bc3576040517f08c379a0000000000000000000000000000000000000000000000000000000008152600401612bba90614e43565b60405180910390fd5b612bcc816120f4565b15612c0c576040517f08c379a0000000000000000000000000000000000000000000000000000000008152600401612c0390614eaf565b60405180910390fd5b612c1a6000838360016125f2565b612c23816120f4565b15612c63576040517f08c379a0000000000000000000000000000000000000000000000000000000008152600401612c5a90614eaf565b60405180910390fd5b6001600360008473ffffffffffffffffffffffffffffffffffffffff1673ffffffffffffffffffffffffffffffffffffffff16815260200190815260200160002060008282540192505081905550816002600083815260200190815260200160002060006101000a81548173ffffffffffffffffffffffffffffffffffffffff021916908373ffffffffffffffffffffffffffffffffffffffff160217905550808273ffffffffffffffffffffffffffffffffffffffff16600073ffffffffffffffffffffffffffffffffffffffff167fddf252ad1be2c89b69c2b068fc378daa952ba7f163c4a11628f55a4df523b3ef60405160405180910390a4612d6d600083836001612604565b5050565b6000808273ffffffffffffffffffffffffffffffffffffffff163b119050919050565b606060006001612da38461328e565b01905060008167ffffffffffffffff811115612dc257612dc1613726565b5b6040519080825280601f01601f191660200182016040528015612df45781602001600182028036833780820191505090505b509050600082602001820190505b600115612e57578080600190039150507f3031323334353637383961626364656600000000000000000000000000000000600a86061a8153600a8581612e4b57612e4a614668565b5b04945060008503612e02575b819350505050919050565b6001811115612f8257600073ffffffffffffffffffffffffffffffffffffffff168473ffffffffffffffffffffffffffffffffffffffff1614612ef65780600360008673ffffffffffffffffffffffffffffffffffffffff1673ffffffffffffffffffffffffffffffffffffffff1681526020019081526020016000206000828254612eee91906140a0565b925050819055505b600073ffffffffffffffffffffffffffffffffffffffff168373ffffffffffffffffffffffffffffffffffffffff1614612f815780600360008573ffffffffffffffffffffffffffffffffffffffff1673ffffffffffffffffffffffffffffffffffffffff1681526020019081526020016000206000828254612f799190614ecf565b925050819055505b5b50505050565b6008805490506009600083815260200190815260200160002081905550600881908060018154018082558091505060019003906000526020600020016000909190919091505550565b60006001612fde84610eeb565b612fe891906140a0565b90506000600760008481526020019081526020016000205490508181146130cd576000600660008673ffffffffffffffffffffffffffffffffffffffff1673ffffffffffffffffffffffffffffffffffffffff168152602001908152602001600020600084815260200190815260200160002054905080600660008773ffffffffffffffffffffffffffffffffffffffff1673ffffffffffffffffffffffffffffffffffffffff168152602001908152602001600020600084815260200190815260200160002081905550816007600083815260200190815260200160002081905550505b6007600084815260200190815260200160002060009055600660008573ffffffffffffffffffffffffffffffffffffffff1673ffffffffffffffffffffffffffffffffffffffff16815260200190815260200160002060008381526020019081526020016000206000905550505050565b6000600160088054905061315291906140a0565b905060006009600084815260200190815260200160002054905060006008838154811061318257613181614042565b5b9060005260206000200154905080600883815481106131a4576131a3614042565b5b9060005260206000200181905550816009600083815260200190815260200160002081905550600960008581526020019081526020016000206000905560088054806131f3576131f2614f03565b5b6001900381819060005260206000200160009055905550505050565b600061321a83610eeb565b905081600660008573ffffffffffffffffffffffffffffffffffffffff1673ffffffffffffffffffffffffffffffffffffffff168152602001908152602001600020600083815260200190815260200160002081905550806007600084815260200190815260200160002081905550505050565b600080600090507a184f03e93ff9f4daa797ed6e38ed64bf6a1f01000000000000000083106132ec577a184f03e93ff9f4daa797ed6e38ed64bf6a1f01000000000000000083816132e2576132e1614668565b5b0492506040810190505b6d04ee2d6d415b85acef81000000008310613329576d04ee2d6d415b85acef8100000000838161331f5761331e614668565b5b0492506020810190505b662386f26fc10000831061335857662386f26fc10000838161334e5761334d614668565b5b0492506010810190505b6305f5e1008310613381576305f5e100838161337757613376614668565b5b0492506008810190505b61271083106133a657612710838161339c5761339b614668565b5b0492506004810190505b606483106133c957606483816133bf576133be614668565b5b0492506002810190505b600a83106133d8576001810190505b80915050919050565b82805482825590600052602060002090810192821561341d579160200282015b8281111561341c578251825591602001919060010190613401565b5b50905061342a919061342e565b5090565b5b8082111561344757600081600090555060010161342f565b5090565b6000604051905090565b600080fd5b600080fd5b60007fffffffff0000000000000000000000000000000000000000000000000000000082169050919050565b6134948161345f565b811461349f57600080fd5b50565b6000813590506134b18161348b565b92915050565b6000602082840312156134cd576134cc613455565b5b60006134db848285016134a2565b91505092915050565b60008115159050919050565b6134f9816134e4565b82525050565b600060208201905061351460008301846134f0565b92915050565b600081519050919050565b600082825260208201905092915050565b60005b83811015613554578082015181840152602081019050613539565b60008484015250505050565b6000601f19601f8301169050919050565b600061357c8261351a565b6135868185613525565b9350613596818560208601613536565b61359f81613560565b840191505092915050565b600060208201905081810360008301526135c48184613571565b905092915050565b6000819050919050565b6135df816135cc565b81146135ea57600080fd5b50565b6000813590506135fc816135d6565b92915050565b60006020828403121561361857613617613455565b5b6000613626848285016135ed565b91505092915050565b600073ffffffffffffffffffffffffffffffffffffffff82169050919050565b600061365a8261362f565b9050919050565b61366a8161364f565b82525050565b60006020820190506136856000830184613661565b92915050565b6136948161364f565b811461369f57600080fd5b50565b6000813590506136b18161368b565b92915050565b600080604083850312156136ce576136cd613455565b5b60006136dc858286016136a2565b92505060206136ed858286016135ed565b9150509250929050565b613700816135cc565b82525050565b600060208201905061371b60008301846136f7565b92915050565b600080fd5b7f4e487b7100000000000000000000000000000000000000000000000000000000600052604160045260246000fd5b61375e82613560565b810181811067ffffffffffffffff8211171561377d5761377c613726565b5b80604052505050565b600061379061344b565b905061379c8282613755565b919050565b600067ffffffffffffffff8211156137bc576137bb613726565b5b602082029050602081019050919050565b600080fd5b60006137e56137e0846137a1565b613786565b90508083825260208201905060208402830185811115613808576138076137cd565b5b835b81811015613831578061381d88826135ed565b84526020840193505060208101905061380a565b5050509392505050565b600082601f8301126138505761384f613721565b5b81356138608482602086016137d2565b91505092915050565b600080604083850312156138805761387f613455565b5b600061388e858286016135ed565b925050602083013567ffffffffffffffff8111156138af576138ae61345a565b5b6138bb8582860161383b565b9150509250929050565b6000806000606084860312156138de576138dd613455565b5b60006138ec868287016136a2565b93505060206138fd868287016136a2565b925050604061390e868287016135ed565b9150509250925092565b60006020828403121561392e5761392d613455565b5b600061393c848285016136a2565b91505092915050565b600080fd5b60008083601f8401126139605761395f613721565b5b8235905067ffffffffffffffff81111561397d5761397c613945565b5b602083019150836001820283011115613999576139986137cd565b5b9250929050565b600080602083850312156139b7576139b6613455565b5b600083013567ffffffffffffffff8111156139d5576139d461345a565b5b6139e18582860161394a565b92509250509250929050565b6000819050919050565b6000613a12613a0d613a088461362f565b6139ed565b61362f565b9050919050565b6000613a24826139f7565b9050919050565b6000613a3682613a19565b9050919050565b613a4681613a2b565b82525050565b6000602082019050613a616000830184613a3d565b92915050565b600081519050919050565b600082825260208201905092915050565b6000613a8e82613a67565b613a988185613a72565b9350613aa8818560208601613536565b613ab181613560565b840191505092915050565b6000604082019050613ad160008301856134f0565b8181036020830152613ae38184613a83565b90509392505050565b6000819050919050565b613aff81613aec565b82525050565b6000602082019050613b1a6000830184613af6565b92915050565b613b29816134e4565b8114613b3457600080fd5b50565b600081359050613b4681613b20565b92915050565b60008060408385031215613b6357613b62613455565b5b6000613b71858286016136a2565b9250506020613b8285828601613b37565b9150509250929050565b600080fd5b600067ffffffffffffffff821115613bac57613bab613726565b5b613bb582613560565b9050602081019050919050565b82818337600083830152505050565b6000613be4613bdf84613b91565b613786565b905082815260208101848484011115613c0057613bff613b8c565b5b613c0b848285613bc2565b509392505050565b600082601f830112613c2857613c27613721565b5b8135613c38848260208601613bd1565b91505092915050565b60008060008060808587031215613c5b57613c5a613455565b5b6000613c69878288016136a2565b9450506020613c7a878288016136a2565b9350506040613c8b878288016135ed565b925050606085013567ffffffffffffffff811115613cac57613cab61345a565b5b613cb887828801613c13565b91505092959194509250565b60008060408385031215613cdb57613cda613455565b5b6000613ce9858286016136a2565b9250506020613cfa858286016136a2565b9150509250929050565b600067ffffffffffffffff82169050919050565b613d2181613d04565b8114613d2c57600080fd5b50565b600081359050613d3e81613d18565b92915050565b600060208284031215613d5a57613d59613455565b5b6000613d6884828501613d2f565b91505092915050565b7f4e487b7100000000000000000000000000000000000000000000000000000000600052602260045260246000fd5b60006002820490506001821680613db857607f821691505b602082108103613dcb57613dca613d71565b5b50919050565b7f4552433732313a20617070726f76616c20746f2063757272656e74206f776e6560008201527f7200000000000000000000000000000000000000000000000000000000000000602082015250565b6000613e2d602183613525565b9150613e3882613dd1565b604082019050919050565b60006020820190508181036000830152613e5c81613e20565b9050919050565b7f4552433732313a20617070726f76652063616c6c6572206973206e6f7420746f60008201527f6b656e206f776e6572206f7220617070726f76656420666f7220616c6c000000602082015250565b6000613ebf603d83613525565b9150613eca82613e63565b604082019050919050565b60006020820190508181036000830152613eee81613eb2565b9050919050565b6000604082019050613f0a6000830185613661565b613f176020830184613661565b9392505050565b7f4552433732313a2063616c6c6572206973206e6f7420746f6b656e206f776e6560008201527f72206f7220617070726f76656400000000000000000000000000000000000000602082015250565b6000613f7a602d83613525565b9150613f8582613f1e565b604082019050919050565b60006020820190508181036000830152613fa981613f6d565b9050919050565b7f455243373231456e756d657261626c653a206f776e657220696e646578206f7560008201527f74206f6620626f756e6473000000000000000000000000000000000000000000602082015250565b600061400c602b83613525565b915061401782613fb0565b604082019050919050565b6000602082019050818103600083015261403b81613fff565b9050919050565b7f4e487b7100000000000000000000000000000000000000000000000000000000600052603260045260246000fd5b7f4e487b7100000000000000000000000000000000000000000000000000000000600052601160045260246000fd5b60006140ab826135cc565b91506140b6836135cc565b92508282039050818111156140ce576140cd614071565b5b92915050565b60008190508160005260206000209050919050565b60006020601f8301049050919050565b600082821b905092915050565b6000600883026141367fffffffffffffffffffffffffffffffffffffffffffffffffffffffffffffffff826140f9565b61414086836140f9565b95508019841693508086168417925050509392505050565b600061417361416e614169846135cc565b6139ed565b6135cc565b9050919050565b6000819050919050565b61418d83614158565b6141a16141998261417a565b848454614106565b825550505050565b600090565b6141b66141a9565b6141c1818484614184565b505050565b5b818110156141e5576141da6000826141ae565b6001810190506141c7565b5050565b601f82111561422a576141fb816140d4565b614204846140e9565b81016020851015614213578190505b61422761421f856140e9565b8301826141c6565b50505b505050565b600082821c905092915050565b600061424d6000198460080261422f565b1980831691505092915050565b6000614266838361423c565b9150826002028217905092915050565b61427f8261351a565b67ffffffffffffffff81111561429857614297613726565b5b6142a28254613da0565b6142ad8282856141e9565b600060209050601f8311600181146142e057600084156142ce578287015190505b6142d8858261425a565b865550614340565b601f1984166142ee866140d4565b60005b82811015614316578489015182556001820191506020850194506020810190506142f1565b86831015614333578489015161432f601f89168261423c565b8355505b6001600288020188555050505b505050505050565b7f455243373231456e756d657261626c653a20676c6f62616c20696e646578206f60008201527f7574206f6620626f756e64730000000000000000000000000000000000000000602082015250565b60006143a4602c83613525565b91506143af82614348565b604082019050919050565b600060208201905081810360008301526143d381614397565b9050919050565b7f4552433732313a20696e76616c696420746f6b656e2049440000000000000000600082015250565b6000614410601883613525565b915061441b826143da565b602082019050919050565b6000602082019050818103600083015261443f81614403565b9050919050565b7f4552433732313a2061646472657373207a65726f206973206e6f74206120766160008201527f6c6964206f776e65720000000000000000000000000000000000000000000000602082015250565b60006144a2602983613525565b91506144ad82614446565b604082019050919050565b600060208201905081810360008301526144d181614495565b9050919050565b600069ffffffffffffffffffff82169050919050565b6144f7816144d8565b811461450257600080fd5b50565b600081519050614514816144ee565b92915050565b61452381613aec565b811461452e57600080fd5b50565b6000815190506145408161451a565b92915050565b600081519050614555816135d6565b92915050565b600080600080600060a0868803121561457757614576613455565b5b600061458588828901614505565b955050602061459688828901614531565b94505060406145a788828901614546565b93505060606145b888828901614546565b92505060806145c988828901614505565b9150509295509295909350565b7f4f776e61626c653a206e6577206f776e657220697320746865207a65726f206160008201527f6464726573730000000000000000000000000000000000000000000000000000602082015250565b6000614632602683613525565b915061463d826145d6565b604082019050919050565b6000602082019050818103600083015261466181614625565b9050919050565b7f4e487b7100000000000000000000000000000000000000000000000000000000600052601260045260246000fd5b60006146a2826135cc565b91506146ad836135cc565b9250826146bd576146bc614668565b5b828206905092915050565b7f4f776e61626c653a2063616c6c6572206973206e6f7420746865206f776e6572600082015250565b60006146fe602083613525565b9150614709826146c8565b602082019050919050565b6000602082019050818103600083015261472d816146f1565b9050919050565b7f4552433732313a207472616e736665722066726f6d20696e636f72726563742060008201527f6f776e6572000000000000000000000000000000000000000000000000000000602082015250565b6000614790602583613525565b915061479b82614734565b604082019050919050565b600060208201905081810360008301526147bf81614783565b9050919050565b7f4552433732313a207472616e7366657220746f20746865207a65726f2061646460008201527f7265737300000000000000000000000000000000000000000000000000000000602082015250565b6000614822602483613525565b915061482d826147c6565b604082019050919050565b6000602082019050818103600083015261485181614815565b9050919050565b7f45524337323155524953746f726167653a2055524920736574206f66206e6f6e60008201527f6578697374656e7420746f6b656e000000000000000000000000000000000000602082015250565b60006148b4602e83613525565b91506148bf82614858565b604082019050919050565b600060208201905081810360008301526148e3816148a7565b9050919050565b600060808201905081810360008301526149048187613571565b905061491360208301866136f7565b81810360408301526149258185613571565b905081810360608301526149398184613571565b905095945050505050565b6000819050919050565b61495781614944565b82525050565b61496681613d04565b82525050565b600061ffff82169050919050565b6149838161496c565b82525050565b600063ffffffff82169050919050565b6149a281614989565b82525050565b600060a0820190506149bd600083018861494e565b6149ca602083018761495d565b6149d7604083018661497a565b6149e46060830185614999565b6149f16080830184614999565b9695505050505050565b600060208284031215614a1157614a10613455565b5b6000614a1f84828501614546565b91505092915050565b7f4552433732313a20617070726f766520746f2063616c6c657200000000000000600082015250565b6000614a5e601983613525565b9150614a6982614a28565b602082019050919050565b60006020820190508181036000830152614a8d81614a51565b9050919050565b7f4552433732313a207472616e7366657220746f206e6f6e20455243373231526560008201527f63656976657220696d706c656d656e7465720000000000000000000000000000602082015250565b6000614af0603283613525565b9150614afb82614a94565b604082019050919050565b60006020820190508181036000830152614b1f81614ae3565b9050919050565b600081905092915050565b6000614b3c8261351a565b614b468185614b26565b9350614b56818560208601613536565b80840191505092915050565b6000614b6e8285614b31565b9150614b7a8284614b31565b91508190509392505050565b6000614b91826135cc565b91507fffffffffffffffffffffffffffffffffffffffffffffffffffffffffffffffff8203614bc357614bc2614071565b5b600182019050919050565b60008154614bdb81613da0565b614be58186613525565b94506001821660008114614c005760018114614c1657614c49565b60ff198316865281151560200286019350614c49565b614c1f856140d4565b60005b83811015614c4157815481890152600182019150602081019050614c22565b808801955050505b50505092915050565b60006020820190508181036000830152614c6c8184614bce565b905092915050565b6000608082019050614c896000830187613661565b614c966020830186613661565b614ca360408301856136f7565b8181036060830152614cb58184613a83565b905095945050505050565b600081519050614ccf8161348b565b92915050565b600060208284031215614ceb57614cea613455565b5b6000614cf984828501614cc0565b91505092915050565b6000614d0e8284614b31565b915081905092915050565b60006060820190508181036000830152614d338186613571565b90508181036020830152614d478185613571565b90508181036040830152614d5b8184613571565b9050949350505050565b7f455243373231456e756d657261626c653a20636f6e736563757469766520747260008201527f616e7366657273206e6f7420737570706f727465640000000000000000000000602082015250565b6000614dc1603583613525565b9150614dcc82614d65565b604082019050919050565b60006020820190508181036000830152614df081614db4565b9050919050565b7f4552433732313a206d696e7420746f20746865207a65726f2061646472657373600082015250565b6000614e2d602083613525565b9150614e3882614df7565b602082019050919050565b60006020820190508181036000830152614e5c81614e20565b9050919050565b7f4552433732313a20746f6b656e20616c7265616479206d696e74656400000000600082015250565b6000614e99601c83613525565b9150614ea482614e63565b602082019050919050565b60006020820190508181036000830152614ec881614e8c565b9050919050565b6000614eda826135cc565b9150614ee5836135cc565b9250828201905080821115614efd57614efc614071565b5b92915050565b7f4e487b7100000000000000000000000000000000000000000000000000000000600052603160045260246000fdfea26469706673582212202944ffa6c3176ae66640e071e591e06e9932d693612d7349f91083633a579c9664736f6c6343000811003368747470733a2f2f697066732e696f2f697066732f516d646355526d4e316b4545744b676e626b564a4a3868726d73535748705a764c6b5267734b4b6f6957765739673f66696c656e616d653d73696d706c655f62756c6c2e6a736f6e68747470733a2f2f697066732e696f2f697066732f516d5258796669336f4e5a43756244786956467265336b4c5a3858654774367051736e4151525a37616b68534e733f66696c656e616d653d67616d65725f62756c6c2e6a736f6e68747470733a2f2f697066732e696f2f697066732f516d624b68425856576d777259735450465966726f52324e374e41656b414d78485556673243576b73376939716a3f66696c656e616d653d73696d706c655f626561722e6a736f6e68747470733a2f2f697066732e696f2f697066732f516d6478394878374643445a474578796a4c52367659636e75745552384b68425a426e5a6641504869556f6d6d4e3f66696c656e616d653d6265616e69655f626561722e6a736f6e68747470733a2f2f697066732e696f2f697066732f516d524a5646654d7274595332435556554d3263484a70425635615832787572706e73665a784c545451626944333f66696c656e616d653d70617274795f62756c6c2e6a736f6e68747470733a2f2f697066732e696f2f697066732f516d54564c79545375694b4755456d6238384267584733714e4338596770485a6946626a4872584b4833514845753f66696c656e616d653d636f6f6c696f5f626561722e6a736f6e",
  "linkReferences": {},
  "deployedLinkReferences": {}
}