{
  "_format": "hh-sol-artifact-1",
  "contractName": "chainlinkOnchain",
  "sourceName": "contracts/chainlinkOnchain.sol",
  "abi": [
    {
      "inputs": [
        {
          "internalType": "uint256",
          "name": "updateInterval",
          "type": "uint256"
        },
        {
          "internalType": "address",
          "name": "_pricefeed",
          "type": "address"
        }
      ],
      "stateMutability": "nonpayable",
      "type": "constructor"
    },
    {
      "anonymous": false,
      "inputs": [
        {
          "indexed": true,
          "internalType": "address",
          "name": "owner",
          "type": "address"
        },
        {
          "indexed": true,
          "internalType": "address",
          "name": "approved",
          "type": "address"
        },
        {
          "indexed": true,
          "internalType": "uint256",
          "name": "tokenId",
          "type": "uint256"
        }
      ],
      "name": "Approval",
      "type": "event"
    },
    {
      "anonymous": false,
      "inputs": [
        {
          "indexed": true,
          "internalType": "address",
          "name": "owner",
          "type": "address"
        },
        {
          "indexed": true,
          "internalType": "address",
          "name": "operator",
          "type": "address"
        },
        {
          "indexed": false,
          "internalType": "bool",
          "name": "approved",
          "type": "bool"
        }
      ],
      "name": "ApprovalForAll",
      "type": "event"
    },
    {
      "anonymous": false,
      "inputs": [
        {
          "indexed": true,
          "internalType": "address",
          "name": "previousOwner",
          "type": "address"
        },
        {
          "indexed": true,
          "internalType": "address",
          "name": "newOwner",
          "type": "address"
        }
      ],
      "name": "OwnershipTransferred",
      "type": "event"
    },
    {
      "anonymous": false,
      "inputs": [
        {
          "indexed": false,
          "internalType": "string",
          "name": "marketTrend",
          "type": "string"
        }
      ],
      "name": "TokensUpdated",
      "type": "event"
    },
    {
      "anonymous": false,
      "inputs": [
        {
          "indexed": true,
          "internalType": "address",
          "name": "from",
          "type": "address"
        },
        {
          "indexed": true,
          "internalType": "address",
          "name": "to",
          "type": "address"
        },
        {
          "indexed": true,
          "internalType": "uint256",
          "name": "tokenId",
          "type": "uint256"
        }
      ],
      "name": "Transfer",
      "type": "event"
    },
    {
      "inputs": [
        {
          "internalType": "address",
          "name": "to",
          "type": "address"
        },
        {
          "internalType": "uint256",
          "name": "tokenId",
          "type": "uint256"
        }
      ],
      "name": "approve",
      "outputs": [],
      "stateMutability": "nonpayable",
      "type": "function"
    },
    {
      "inputs": [
        {
          "internalType": "address",
          "name": "owner",
          "type": "address"
        }
      ],
      "name": "balanceOf",
      "outputs": [
        {
          "internalType": "uint256",
          "name": "",
          "type": "uint256"
        }
      ],
      "stateMutability": "view",
      "type": "function"
    },
    {
      "inputs": [
        {
          "internalType": "bytes",
          "name": "",
          "type": "bytes"
        }
      ],
      "name": "checkUpkeep",
      "outputs": [
        {
          "internalType": "bool",
          "name": "upkeepNeeded",
          "type": "bool"
        },
        {
          "internalType": "bytes",
          "name": "",
          "type": "bytes"
        }
      ],
      "stateMutability": "view",
      "type": "function"
    },
    {
      "inputs": [],
      "name": "currentPrice",
      "outputs": [
        {
          "internalType": "int256",
          "name": "",
          "type": "int256"
        }
      ],
      "stateMutability": "view",
      "type": "function"
    },
    {
      "inputs": [
        {
          "internalType": "uint256",
          "name": "tokenId",
          "type": "uint256"
        }
      ],
      "name": "getApproved",
      "outputs": [
        {
          "internalType": "address",
          "name": "",
          "type": "address"
        }
      ],
      "stateMutability": "view",
      "type": "function"
    },
    {
      "inputs": [],
      "name": "getLatestPrice",
      "outputs": [
        {
          "internalType": "int256",
          "name": "",
          "type": "int256"
        }
      ],
      "stateMutability": "view",
      "type": "function"
    },
    {
      "inputs": [],
      "name": "interval",
      "outputs": [
        {
          "internalType": "uint256",
          "name": "",
          "type": "uint256"
        }
      ],
      "stateMutability": "view",
      "type": "function"
    },
    {
      "inputs": [
        {
          "internalType": "address",
          "name": "owner",
          "type": "address"
        },
        {
          "internalType": "address",
          "name": "operator",
          "type": "address"
        }
      ],
      "name": "isApprovedForAll",
      "outputs": [
        {
          "internalType": "bool",
          "name": "",
          "type": "bool"
        }
      ],
      "stateMutability": "view",
      "type": "function"
    },
    {
      "inputs": [],
      "name": "lastTimeStamp",
      "outputs": [
        {
          "internalType": "uint256",
          "name": "",
          "type": "uint256"
        }
      ],
      "stateMutability": "view",
      "type": "function"
    },
    {
      "inputs": [],
      "name": "name",
      "outputs": [
        {
          "internalType": "string",
          "name": "",
          "type": "string"
        }
      ],
      "stateMutability": "view",
      "type": "function"
    },
    {
      "inputs": [],
      "name": "owner",
      "outputs": [
        {
          "internalType": "address",
          "name": "",
          "type": "address"
        }
      ],
      "stateMutability": "view",
      "type": "function"
    },
    {
      "inputs": [
        {
          "internalType": "uint256",
          "name": "tokenId",
          "type": "uint256"
        }
      ],
      "name": "ownerOf",
      "outputs": [
        {
          "internalType": "address",
          "name": "",
          "type": "address"
        }
      ],
      "stateMutability": "view",
      "type": "function"
    },
    {
      "inputs": [
        {
          "internalType": "bytes",
          "name": "",
          "type": "bytes"
        }
      ],
      "name": "performUpkeep",
      "outputs": [],
      "stateMutability": "nonpayable",
      "type": "function"
    },
    {
      "inputs": [],
      "name": "pricefeed",
      "outputs": [
        {
          "internalType": "contract AggregatorV3Interface",
          "name": "",
          "type": "address"
        }
      ],
      "stateMutability": "view",
      "type": "function"
    },
    {
      "inputs": [],
      "name": "renounceOwnership",
      "outputs": [],
      "stateMutability": "nonpayable",
      "type": "function"
    },
    {
      "inputs": [
        {
          "internalType": "address",
          "name": "to",
          "type": "address"
        }
      ],
      "name": "safeMint",
      "outputs": [],
      "stateMutability": "nonpayable",
      "type": "function"
    },
    {
      "inputs": [
        {
          "internalType": "address",
          "name": "from",
          "type": "address"
        },
        {
          "internalType": "address",
          "name": "to",
          "type": "address"
        },
        {
          "internalType": "uint256",
          "name": "tokenId",
          "type": "uint256"
        }
      ],
      "name": "safeTransferFrom",
      "outputs": [],
      "stateMutability": "nonpayable",
      "type": "function"
    },
    {
      "inputs": [
        {
          "internalType": "address",
          "name": "from",
          "type": "address"
        },
        {
          "internalType": "address",
          "name": "to",
          "type": "address"
        },
        {
          "internalType": "uint256",
          "name": "tokenId",
          "type": "uint256"
        },
        {
          "internalType": "bytes",
          "name": "data",
          "type": "bytes"
        }
      ],
      "name": "safeTransferFrom",
      "outputs": [],
      "stateMutability": "nonpayable",
      "type": "function"
    },
    {
      "inputs": [
        {
          "internalType": "address",
          "name": "operator",
          "type": "address"
        },
        {
          "internalType": "bool",
          "name": "approved",
          "type": "bool"
        }
      ],
      "name": "setApprovalForAll",
      "outputs": [],
      "stateMutability": "nonpayable",
      "type": "function"
    },
    {
      "inputs": [
        {
          "internalType": "uint256",
          "name": "newInterval",
          "type": "uint256"
        }
      ],
      "name": "setInterval",
      "outputs": [],
      "stateMutability": "nonpayable",
      "type": "function"
    },
    {
      "inputs": [
        {
          "internalType": "address",
          "name": "newFeed",
          "type": "address"
        }
      ],
      "name": "setPriceFeed",
      "outputs": [],
      "stateMutability": "nonpayable",
      "type": "function"
    },
    {
      "inputs": [
        {
          "internalType": "bytes4",
          "name": "interfaceId",
          "type": "bytes4"
        }
      ],
      "name": "supportsInterface",
      "outputs": [
        {
          "internalType": "bool",
          "name": "",
          "type": "bool"
        }
      ],
      "stateMutability": "view",
      "type": "function"
    },
    {
      "inputs": [],
      "name": "symbol",
      "outputs": [
        {
          "internalType": "string",
          "name": "",
          "type": "string"
        }
      ],
      "stateMutability": "view",
      "type": "function"
    },
    {
      "inputs": [
        {
          "internalType": "uint256",
          "name": "index",
          "type": "uint256"
        }
      ],
      "name": "tokenByIndex",
      "outputs": [
        {
          "internalType": "uint256",
          "name": "",
          "type": "uint256"
        }
      ],
      "stateMutability": "view",
      "type": "function"
    },
    {
      "inputs": [
        {
          "internalType": "address",
          "name": "owner",
          "type": "address"
        },
        {
          "internalType": "uint256",
          "name": "index",
          "type": "uint256"
        }
      ],
      "name": "tokenOfOwnerByIndex",
      "outputs": [
        {
          "internalType": "uint256",
          "name": "",
          "type": "uint256"
        }
      ],
      "stateMutability": "view",
      "type": "function"
    },
    {
      "inputs": [
        {
          "internalType": "uint256",
          "name": "tokenId",
          "type": "uint256"
        }
      ],
      "name": "tokenURI",
      "outputs": [
        {
          "internalType": "string",
          "name": "",
          "type": "string"
        }
      ],
      "stateMutability": "view",
      "type": "function"
    },
    {
      "inputs": [],
      "name": "totalSupply",
      "outputs": [
        {
          "internalType": "uint256",
          "name": "",
          "type": "uint256"
        }
      ],
      "stateMutability": "view",
      "type": "function"
    },
    {
      "inputs": [
        {
          "internalType": "address",
          "name": "from",
          "type": "address"
        },
        {
          "internalType": "address",
          "name": "to",
          "type": "address"
        },
        {
          "internalType": "uint256",
          "name": "tokenId",
          "type": "uint256"
        }
      ],
      "name": "transferFrom",
      "outputs": [],
      "stateMutability": "nonpayable",
      "type": "function"
    },
    {
      "inputs": [
        {
          "internalType": "address",
          "name": "newOwner",
          "type": "address"
        }
      ],
      "name": "transferOwnership",
      "outputs": [],
      "stateMutability": "nonpayable",
      "type": "function"
    }
  ],
  "bytecode": "0x608060405260405180606001604052806040518060800160405280605c81526020016200511d605c913981526020016040518060800160405280605c815260200162005233605c913981526020016040518060800160405280605d8152602001620050c0605d913981525060119060036200007c929190620003ba565b5060405180606001604052806040518060800160405280605d8152602001620051d6605d913981526020016040518060800160405280605d81526020016200528f605d913981526020016040518060800160405280605d815260200162005179605d91398152506012906003620000f5929190620003ba565b503480156200010357600080fd5b50604051620052ec380380620052ec83398181016040528101906200012991906200054c565b6040518060400160405280601081526020017f636861696e6c696e6b4f6e636861696e000000000000000000000000000000008152506040518060400160405280600481526020017f636c6f63000000000000000000000000000000000000000000000000000000008152508160009081620001a6919062000803565b508060019081620001b8919062000803565b505050620001db620001cf6200024860201b60201c565b6200025060201b60201c565b81600e8190555042600f8190555080600d60006101000a81548173ffffffffffffffffffffffffffffffffffffffff021916908373ffffffffffffffffffffffffffffffffffffffff1602179055506200023a6200031660201b60201c565b6010819055505050620009f4565b600033905090565b6000600b60009054906101000a900473ffffffffffffffffffffffffffffffffffffffff16905081600b60006101000a81548173ffffffffffffffffffffffffffffffffffffffff021916908373ffffffffffffffffffffffffffffffffffffffff1602179055508173ffffffffffffffffffffffffffffffffffffffff168173ffffffffffffffffffffffffffffffffffffffff167f8be0079c531659141344cd1fd0a4f28419497f9722a3daafe3b4186f6b6457e060405160405180910390a35050565b600080600d60009054906101000a900473ffffffffffffffffffffffffffffffffffffffff1673ffffffffffffffffffffffffffffffffffffffff1663feaf968c6040518163ffffffff1660e01b815260040160a060405180830381865afa15801562000387573d6000803e3d6000fd5b505050506040513d601f19601f82011682018060405250810190620003ad91906200096c565b5050509150508091505090565b82805482825590600052602060002090810192821562000407579160200282015b8281111562000406578251829081620003f5919062000803565b5091602001919060010190620003db565b5b5090506200041691906200041a565b5090565b5b808211156200043e576000818162000434919062000442565b506001016200041b565b5090565b5080546200045090620005fc565b6000825580601f1062000464575062000485565b601f01602090049060005260206000209081019062000484919062000488565b5b50565b5b80821115620004a357600081600090555060010162000489565b5090565b600080fd5b6000819050919050565b620004c181620004ac565b8114620004cd57600080fd5b50565b600081519050620004e181620004b6565b92915050565b600073ffffffffffffffffffffffffffffffffffffffff82169050919050565b60006200051482620004e7565b9050919050565b620005268162000507565b81146200053257600080fd5b50565b60008151905062000546816200051b565b92915050565b60008060408385031215620005665762000565620004a7565b5b60006200057685828601620004d0565b9250506020620005898582860162000535565b9150509250929050565b600081519050919050565b7f4e487b7100000000000000000000000000000000000000000000000000000000600052604160045260246000fd5b7f4e487b7100000000000000000000000000000000000000000000000000000000600052602260045260246000fd5b600060028204905060018216806200061557607f821691505b6020821081036200062b576200062a620005cd565b5b50919050565b60008190508160005260206000209050919050565b60006020601f8301049050919050565b600082821b905092915050565b600060088302620006957fffffffffffffffffffffffffffffffffffffffffffffffffffffffffffffffff8262000656565b620006a1868362000656565b95508019841693508086168417925050509392505050565b6000819050919050565b6000620006e4620006de620006d884620004ac565b620006b9565b620004ac565b9050919050565b6000819050919050565b6200070083620006c3565b620007186200070f82620006eb565b84845462000663565b825550505050565b600090565b6200072f62000720565b6200073c818484620006f5565b505050565b5b8181101562000764576200075860008262000725565b60018101905062000742565b5050565b601f821115620007b3576200077d8162000631565b620007888462000646565b8101602085101562000798578190505b620007b0620007a78562000646565b83018262000741565b50505b505050565b600082821c905092915050565b6000620007d860001984600802620007b8565b1980831691505092915050565b6000620007f38383620007c5565b9150826002028217905092915050565b6200080e8262000593565b67ffffffffffffffff8111156200082a57620008296200059e565b5b620008368254620005fc565b6200084382828562000768565b600060209050601f8311600181146200087b576000841562000866578287015190505b620008728582620007e5565b865550620008e2565b601f1984166200088b8662000631565b60005b82811015620008b5578489015182556001820191506020850194506020810190506200088e565b86831015620008d55784890151620008d1601f891682620007c5565b8355505b6001600288020188555050505b505050505050565b600069ffffffffffffffffffff82169050919050565b6200090b81620008ea565b81146200091757600080fd5b50565b6000815190506200092b8162000900565b92915050565b6000819050919050565b620009468162000931565b81146200095257600080fd5b50565b60008151905062000966816200093b565b92915050565b600080600080600060a086880312156200098b576200098a620004a7565b5b60006200099b888289016200091a565b9550506020620009ae8882890162000955565b9450506040620009c188828901620004d0565b9350506060620009d488828901620004d0565b9250506080620009e7888289016200091a565b9150509295509295909350565b6146bc8062000a046000396000f3fe608060405234801561001057600080fd5b50600436106101cf5760003560e01c80636352211e11610104578063947a36fb116100a2578063b88d4fde11610071578063b88d4fde1461051d578063c87b56dd14610539578063e985e9c514610569578063f2fde38b14610599576101cf565b8063947a36fb146104a757806395d89b41146104c55780639d1b464a146104e3578063a22cb46514610501576101cf565b8063715018a6116100de578063715018a614610445578063724e78da1461044f5780638da5cb5b1461046b5780638e15f47314610489576101cf565b80636352211e146103b45780636e04ff0d146103e457806370a0823114610415576101cf565b80632f745c591161017157806342842e0e1161014b57806342842e0e1461032e5780634585e33b1461034a5780634f6ccce714610366578063590f211314610396576101cf565b80632f745c59146102c45780633f3b3b27146102f457806340d097c314610312576101cf565b8063095ea7b3116101ad578063095ea7b31461025257806318160ddd1461026e57806322a900821461028c57806323b872dd146102a8576101cf565b806301ffc9a7146101d457806306fdde0314610204578063081812fc14610222575b600080fd5b6101ee60048036038101906101e99190612f7b565b6105b5565b6040516101fb9190612fc3565b60405180910390f35b61020c6105c7565b604051610219919061306e565b60405180910390f35b61023c600480360381019061023791906130c6565b610659565b6040516102499190613134565b60405180910390f35b61026c6004803603810190610267919061317b565b61069f565b005b6102766107b6565b60405161028391906131ca565b60405180910390f35b6102a660048036038101906102a191906130c6565b6107c3565b005b6102c260048036038101906102bd91906131e5565b6107d5565b005b6102de60048036038101906102d9919061317b565b610835565b6040516102eb91906131ca565b60405180910390f35b6102fc6108da565b60405161030991906131ca565b60405180910390f35b61032c60048036038101906103279190613238565b6108e0565b005b610348600480360381019061034391906131e5565b610a33565b005b610364600480360381019061035f91906132ca565b610a53565b005b610380600480360381019061037b91906130c6565b610c27565b60405161038d91906131ca565b60405180910390f35b61039e610c98565b6040516103ab9190613376565b60405180910390f35b6103ce60048036038101906103c991906130c6565b610cbe565b6040516103db9190613134565b60405180910390f35b6103fe60048036038101906103f991906132ca565b610d44565b60405161040c9291906133e6565b60405180910390f35b61042f600480360381019061042a9190613238565b610d63565b60405161043c91906131ca565b60405180910390f35b61044d610e1a565b005b61046960048036038101906104649190613238565b610e2e565b005b610473610e7a565b6040516104809190613134565b60405180910390f35b610491610ea4565b60405161049e919061342f565b60405180910390f35b6104af610f45565b6040516104bc91906131ca565b60405180910390f35b6104cd610f4b565b6040516104da919061306e565b60405180910390f35b6104eb610fdd565b6040516104f8919061342f565b60405180910390f35b61051b60048036038101906105169190613476565b610fe3565b005b610537600480360381019061053291906135e6565b610ff9565b005b610553600480360381019061054e91906130c6565b61105b565b604051610560919061306e565b60405180910390f35b610583600480360381019061057e9190613669565b61106d565b6040516105909190612fc3565b60405180910390f35b6105b360048036038101906105ae9190613238565b611101565b005b60006105c082611184565b9050919050565b6060600080546105d6906136d8565b80601f0160208091040260200160405190810160405280929190818152602001828054610602906136d8565b801561064f5780601f106106245761010080835404028352916020019161064f565b820191906000526020600020905b81548152906001019060200180831161063257829003601f168201915b5050505050905090565b6000610664826111fe565b6004600083815260200190815260200160002060009054906101000a900473ffffffffffffffffffffffffffffffffffffffff169050919050565b60006106aa82610cbe565b90508073ffffffffffffffffffffffffffffffffffffffff168373ffffffffffffffffffffffffffffffffffffffff160361071a576040517f08c379a00000000000000000000000000000000000000000000000000000000081526004016107119061377b565b60405180910390fd5b8073ffffffffffffffffffffffffffffffffffffffff16610739611249565b73ffffffffffffffffffffffffffffffffffffffff161480610768575061076781610762611249565b61106d565b5b6107a7576040517f08c379a000000000000000000000000000000000000000000000000000000000815260040161079e9061380d565b60405180910390fd5b6107b18383611251565b505050565b6000600880549050905090565b6107cb61130a565b80600e8190555050565b6107e66107e0611249565b82611388565b610825576040517f08c379a000000000000000000000000000000000000000000000000000000000815260040161081c9061389f565b60405180910390fd5b61083083838361141d565b505050565b600061084083610d63565b8210610881576040517f08c379a000000000000000000000000000000000000000000000000000000000815260040161087890613931565b60405180910390fd5b600660008473ffffffffffffffffffffffffffffffffffffffff1673ffffffffffffffffffffffffffffffffffffffff168152602001908152602001600020600083815260200190815260200160002054905092915050565b600f5481565b60006108ec600c611716565b90506108f8600c611724565b610902828261173a565b6000601160008154811061091957610918613951565b5b90600052602060002001805461092e906136d8565b80601f016020809104026020016040519081016040528092919081815260200182805461095a906136d8565b80156109a75780601f1061097c576101008083540402835291602001916109a7565b820191906000526020600020905b81548152906001019060200180831161098a57829003601f168201915b505050505090506109b88282611758565b610a2e6040518060400160405280601581526020017f444f4e45212121206d696e74656420746f6b656e200000000000000000000000815250836040518060400160405280601981526020017f20616e642061737369676e656420746f6b656e2075726c3a2000000000000000815250846117c5565b505050565b610a4e83838360405180602001604052806000815250610ff9565b505050565b600e54600f5442610a6491906139af565b1115610bdf5742600f819055506000610a7b610ea4565b90506010548103610aca57610ac46040518060400160405280601781526020017f4e4f204348414e4745202d3e2072657475726e696e6721000000000000000000815250611867565b50610c23565b601054811215610b5557610b126040518060400160405280600d81526020017f49545320424541522054494d4500000000000000000000000000000000000000815250611867565b610b506040518060400160405280600481526020017f6265617200000000000000000000000000000000000000000000000000000000815250611900565b610bd2565b610b936040518060400160405280600d81526020017f4954532042554c4c2054494d4500000000000000000000000000000000000000815250611867565b610bd16040518060400160405280600481526020017f62756c6c00000000000000000000000000000000000000000000000000000000815250611900565b5b8060108190555050610c22565b610c1d6040518060400160405280601181526020017f20494e54455256414c204e4f5420555021000000000000000000000000000000815250611867565b610c23565b5b5050565b6000610c316107b6565b8210610c72576040517f08c379a0000000000000000000000000000000000000000000000000000000008152600401610c6990613a55565b60405180910390fd5b60088281548110610c8657610c85613951565b5b90600052602060002001549050919050565b600d60009054906101000a900473ffffffffffffffffffffffffffffffffffffffff1681565b600080610cca83611c20565b9050600073ffffffffffffffffffffffffffffffffffffffff168173ffffffffffffffffffffffffffffffffffffffff1603610d3b576040517f08c379a0000000000000000000000000000000000000000000000000000000008152600401610d3290613ac1565b60405180910390fd5b80915050919050565b60006060600e54600f5442610d5991906139af565b1191509250929050565b60008073ffffffffffffffffffffffffffffffffffffffff168273ffffffffffffffffffffffffffffffffffffffff1603610dd3576040517f08c379a0000000000000000000000000000000000000000000000000000000008152600401610dca90613b53565b60405180910390fd5b600360008373ffffffffffffffffffffffffffffffffffffffff1673ffffffffffffffffffffffffffffffffffffffff168152602001908152602001600020549050919050565b610e2261130a565b610e2c6000611c5d565b565b610e3661130a565b80600d60006101000a81548173ffffffffffffffffffffffffffffffffffffffff021916908373ffffffffffffffffffffffffffffffffffffffff16021790555050565b6000600b60009054906101000a900473ffffffffffffffffffffffffffffffffffffffff16905090565b600080600d60009054906101000a900473ffffffffffffffffffffffffffffffffffffffff1673ffffffffffffffffffffffffffffffffffffffff1663feaf968c6040518163ffffffff1660e01b815260040160a060405180830381865afa158015610f14573d6000803e3d6000fd5b505050506040513d601f19601f82011682018060405250810190610f389190613bf6565b5050509150508091505090565b600e5481565b606060018054610f5a906136d8565b80601f0160208091040260200160405190810160405280929190818152602001828054610f86906136d8565b8015610fd35780601f10610fa857610100808354040283529160200191610fd3565b820191906000526020600020905b815481529060010190602001808311610fb657829003601f168201915b5050505050905090565b60105481565b610ff5610fee611249565b8383611d23565b5050565b61100a611004611249565b83611388565b611049576040517f08c379a00000000000000000000000000000000000000000000000000000000081526004016110409061389f565b60405180910390fd5b61105584848484611e8f565b50505050565b606061106682611eeb565b9050919050565b6000600560008473ffffffffffffffffffffffffffffffffffffffff1673ffffffffffffffffffffffffffffffffffffffff16815260200190815260200160002060008373ffffffffffffffffffffffffffffffffffffffff1673ffffffffffffffffffffffffffffffffffffffff16815260200190815260200160002060009054906101000a900460ff16905092915050565b61110961130a565b600073ffffffffffffffffffffffffffffffffffffffff168173ffffffffffffffffffffffffffffffffffffffff1603611178576040517f08c379a000000000000000000000000000000000000000000000000000000000815260040161116f90613ce3565b60405180910390fd5b61118181611c5d565b50565b60007f780e9d63000000000000000000000000000000000000000000000000000000007bffffffffffffffffffffffffffffffffffffffffffffffffffffffff1916827bffffffffffffffffffffffffffffffffffffffffffffffffffffffff191614806111f757506111f682611ffd565b5b9050919050565b611207816120df565b611246576040517f08c379a000000000000000000000000000000000000000000000000000000000815260040161123d90613ac1565b60405180910390fd5b50565b600033905090565b816004600083815260200190815260200160002060006101000a81548173ffffffffffffffffffffffffffffffffffffffff021916908373ffffffffffffffffffffffffffffffffffffffff160217905550808273ffffffffffffffffffffffffffffffffffffffff166112c483610cbe565b73ffffffffffffffffffffffffffffffffffffffff167f8c5be1e5ebec7d5bd14f71427d1e84f3dd0314c0f7b2291e5b200ac8c7c3b92560405160405180910390a45050565b611312611249565b73ffffffffffffffffffffffffffffffffffffffff16611330610e7a565b73ffffffffffffffffffffffffffffffffffffffff1614611386576040517f08c379a000000000000000000000000000000000000000000000000000000000815260040161137d90613d4f565b60405180910390fd5b565b60008061139483610cbe565b90508073ffffffffffffffffffffffffffffffffffffffff168473ffffffffffffffffffffffffffffffffffffffff1614806113d657506113d5818561106d565b5b8061141457508373ffffffffffffffffffffffffffffffffffffffff166113fc84610659565b73ffffffffffffffffffffffffffffffffffffffff16145b91505092915050565b8273ffffffffffffffffffffffffffffffffffffffff1661143d82610cbe565b73ffffffffffffffffffffffffffffffffffffffff1614611493576040517f08c379a000000000000000000000000000000000000000000000000000000000815260040161148a90613de1565b60405180910390fd5b600073ffffffffffffffffffffffffffffffffffffffff168273ffffffffffffffffffffffffffffffffffffffff1603611502576040517f08c379a00000000000000000000000000000000000000000000000000000000081526004016114f990613e73565b60405180910390fd5b61150f8383836001612120565b8273ffffffffffffffffffffffffffffffffffffffff1661152f82610cbe565b73ffffffffffffffffffffffffffffffffffffffff1614611585576040517f08c379a000000000000000000000000000000000000000000000000000000000815260040161157c90613de1565b60405180910390fd5b6004600082815260200190815260200160002060006101000a81549073ffffffffffffffffffffffffffffffffffffffff02191690556001600360008573ffffffffffffffffffffffffffffffffffffffff1673ffffffffffffffffffffffffffffffffffffffff168152602001908152602001600020600082825403925050819055506001600360008473ffffffffffffffffffffffffffffffffffffffff1673ffffffffffffffffffffffffffffffffffffffff16815260200190815260200160002060008282540192505081905550816002600083815260200190815260200160002060006101000a81548173ffffffffffffffffffffffffffffffffffffffff021916908373ffffffffffffffffffffffffffffffffffffffff160217905550808273ffffffffffffffffffffffffffffffffffffffff168473ffffffffffffffffffffffffffffffffffffffff167fddf252ad1be2c89b69c2b068fc378daa952ba7f163c4a11628f55a4df523b3ef60405160405180910390a46117118383836001612132565b505050565b600081600001549050919050565b6001816000016000828254019250508190555050565b611754828260405180602001604052806000815250612138565b5050565b611761826120df565b6117a0576040517f08c379a000000000000000000000000000000000000000000000000000000000815260040161179790613f05565b60405180910390fd5b80600a600084815260200190815260200160002090816117c091906140c7565b505050565b611861848484846040516024016117df9493929190614199565b6040516020818303038152906040527f5ab84e1f000000000000000000000000000000000000000000000000000000007bffffffffffffffffffffffffffffffffffffffffffffffffffffffff19166020820180517bffffffffffffffffffffffffffffffffffffffffffffffffffffffff8381831617835250505050612193565b50505050565b6118fd8160405160240161187b919061306e565b6040516020818303038152906040527f41304fac000000000000000000000000000000000000000000000000000000007bffffffffffffffffffffffffffffffffffffffffffffffffffffffff19166020820180517bffffffffffffffffffffffffffffffffffffffffffffffffffffffff8381831617835250505050612193565b50565b61193f6040518060400160405280600481526020017f6265617200000000000000000000000000000000000000000000000000000000815250826121bc565b15611a97576119b96040518060400160405280601a81526020017f205550444154494e4720544f4b454e20555249532057495448200000000000008152506040518060400160405280600481526020017f626561720000000000000000000000000000000000000000000000000000000081525083612215565b60005b6119c6600c611716565b811015611a9157611a7e8160126000815481106119e6576119e5613951565b5b9060005260206000200180546119fb906136d8565b80601f0160208091040260200160405190810160405280929190818152602001828054611a27906136d8565b8015611a745780601f10611a4957610100808354040283529160200191611a74565b820191906000526020600020905b815481529060010190602001808311611a5757829003601f168201915b5050505050611758565b8080611a89906141f3565b9150506119bc565b50611be6565b611b0c6040518060400160405280601a81526020017f205550444154494e4720544f4b454e20555249532057495448200000000000008152506040518060400160405280600481526020017f62756c6c0000000000000000000000000000000000000000000000000000000081525083612215565b60005b611b19600c611716565b811015611be457611bd1816011600081548110611b3957611b38613951565b5b906000526020600020018054611b4e906136d8565b80601f0160208091040260200160405190810160405280929190818152602001828054611b7a906136d8565b8015611bc75780601f10611b9c57610100808354040283529160200191611bc7565b820191906000526020600020905b815481529060010190602001808311611baa57829003601f168201915b5050505050611758565b8080611bdc906141f3565b915050611b0f565b505b7f1cd67277dcd039d660f99499bdb46e90175d6160e3f9ab788a032b7a1ad2356a81604051611c15919061306e565b60405180910390a150565b60006002600083815260200190815260200160002060009054906101000a900473ffffffffffffffffffffffffffffffffffffffff169050919050565b6000600b60009054906101000a900473ffffffffffffffffffffffffffffffffffffffff16905081600b60006101000a81548173ffffffffffffffffffffffffffffffffffffffff021916908373ffffffffffffffffffffffffffffffffffffffff1602179055508173ffffffffffffffffffffffffffffffffffffffff168173ffffffffffffffffffffffffffffffffffffffff167f8be0079c531659141344cd1fd0a4f28419497f9722a3daafe3b4186f6b6457e060405160405180910390a35050565b8173ffffffffffffffffffffffffffffffffffffffff168373ffffffffffffffffffffffffffffffffffffffff1603611d91576040517f08c379a0000000000000000000000000000000000000000000000000000000008152600401611d8890614287565b60405180910390fd5b80600560008573ffffffffffffffffffffffffffffffffffffffff1673ffffffffffffffffffffffffffffffffffffffff16815260200190815260200160002060008473ffffffffffffffffffffffffffffffffffffffff1673ffffffffffffffffffffffffffffffffffffffff16815260200190815260200160002060006101000a81548160ff0219169083151502179055508173ffffffffffffffffffffffffffffffffffffffff168373ffffffffffffffffffffffffffffffffffffffff167f17307eab39ab6107e8899845ad3d59bd9653f200f220920489ca2b5937696c3183604051611e829190612fc3565b60405180910390a3505050565b611e9a84848461141d565b611ea6848484846122b4565b611ee5576040517f08c379a0000000000000000000000000000000000000000000000000000000008152600401611edc90614319565b60405180910390fd5b50505050565b6060611ef6826111fe565b6000600a60008481526020019081526020016000208054611f16906136d8565b80601f0160208091040260200160405190810160405280929190818152602001828054611f42906136d8565b8015611f8f5780601f10611f6457610100808354040283529160200191611f8f565b820191906000526020600020905b815481529060010190602001808311611f7257829003601f168201915b505050505090506000611fa061243b565b90506000815103611fb5578192505050611ff8565b600082511115611fea578082604051602001611fd2929190614375565b60405160208183030381529060405292505050611ff8565b611ff384612452565b925050505b919050565b60007f80ac58cd000000000000000000000000000000000000000000000000000000007bffffffffffffffffffffffffffffffffffffffffffffffffffffffff1916827bffffffffffffffffffffffffffffffffffffffffffffffffffffffff191614806120c857507f5b5e139f000000000000000000000000000000000000000000000000000000007bffffffffffffffffffffffffffffffffffffffffffffffffffffffff1916827bffffffffffffffffffffffffffffffffffffffffffffffffffffffff1916145b806120d857506120d7826124ba565b5b9050919050565b60008073ffffffffffffffffffffffffffffffffffffffff1661210183611c20565b73ffffffffffffffffffffffffffffffffffffffff1614159050919050565b61212c84848484612524565b50505050565b50505050565b6121428383612682565b61214f60008484846122b4565b61218e576040517f08c379a000000000000000000000000000000000000000000000000000000000815260040161218590614319565b60405180910390fd5b505050565b60008151905060006a636f6e736f6c652e6c6f679050602083016000808483855afa5050505050565b6000816040516020016121cf9190614399565b60405160208183030381529060405280519060200120836040516020016121f69190614399565b6040516020818303038152906040528051906020012014905092915050565b6122af83838360405160240161222d939291906143b0565b6040516020818303038152906040527f2ced7cef000000000000000000000000000000000000000000000000000000007bffffffffffffffffffffffffffffffffffffffffffffffffffffffff19166020820180517bffffffffffffffffffffffffffffffffffffffffffffffffffffffff8381831617835250505050612193565b505050565b60006122d58473ffffffffffffffffffffffffffffffffffffffff1661289f565b1561242e578373ffffffffffffffffffffffffffffffffffffffff1663150b7a026122fe611249565b8786866040518563ffffffff1660e01b815260040161232094939291906143fc565b6020604051808303816000875af192505050801561235c57506040513d601f19601f82011682018060405250810190612359919061445d565b60015b6123de573d806000811461238c576040519150601f19603f3d011682016040523d82523d6000602084013e612391565b606091505b5060008151036123d6576040517f08c379a00000000000000000000000000000000000000000000000000000000081526004016123cd90614319565b60405180910390fd5b805181602001fd5b63150b7a0260e01b7bffffffffffffffffffffffffffffffffffffffffffffffffffffffff1916817bffffffffffffffffffffffffffffffffffffffffffffffffffffffff191614915050612433565b600190505b949350505050565b606060405180602001604052806000815250905090565b606061245d826111fe565b600061246761243b565b9050600081511161248757604051806020016040528060008152506124b2565b80612491846128c2565b6040516020016124a2929190614375565b6040516020818303038152906040525b915050919050565b60007f01ffc9a7000000000000000000000000000000000000000000000000000000007bffffffffffffffffffffffffffffffffffffffffffffffffffffffff1916827bffffffffffffffffffffffffffffffffffffffffffffffffffffffff1916149050919050565b61253084848484612990565b6001811115612574576040517f08c379a000000000000000000000000000000000000000000000000000000000815260040161256b906144fc565b60405180910390fd5b6000829050600073ffffffffffffffffffffffffffffffffffffffff168573ffffffffffffffffffffffffffffffffffffffff16036125bb576125b681612ab6565b6125fa565b8373ffffffffffffffffffffffffffffffffffffffff168573ffffffffffffffffffffffffffffffffffffffff16146125f9576125f88582612aff565b5b5b600073ffffffffffffffffffffffffffffffffffffffff168473ffffffffffffffffffffffffffffffffffffffff160361263c5761263781612c6c565b61267b565b8473ffffffffffffffffffffffffffffffffffffffff168473ffffffffffffffffffffffffffffffffffffffff161461267a576126798482612d3d565b5b5b5050505050565b600073ffffffffffffffffffffffffffffffffffffffff168273ffffffffffffffffffffffffffffffffffffffff16036126f1576040517f08c379a00000000000000000000000000000000000000000000000000000000081526004016126e890614568565b60405180910390fd5b6126fa816120df565b1561273a576040517f08c379a0000000000000000000000000000000000000000000000000000000008152600401612731906145d4565b60405180910390fd5b612748600083836001612120565b612751816120df565b15612791576040517f08c379a0000000000000000000000000000000000000000000000000000000008152600401612788906145d4565b60405180910390fd5b6001600360008473ffffffffffffffffffffffffffffffffffffffff1673ffffffffffffffffffffffffffffffffffffffff16815260200190815260200160002060008282540192505081905550816002600083815260200190815260200160002060006101000a81548173ffffffffffffffffffffffffffffffffffffffff021916908373ffffffffffffffffffffffffffffffffffffffff160217905550808273ffffffffffffffffffffffffffffffffffffffff16600073ffffffffffffffffffffffffffffffffffffffff167fddf252ad1be2c89b69c2b068fc378daa952ba7f163c4a11628f55a4df523b3ef60405160405180910390a461289b600083836001612132565b5050565b6000808273ffffffffffffffffffffffffffffffffffffffff163b119050919050565b6060600060016128d184612dbc565b01905060008167ffffffffffffffff8111156128f0576128ef6134bb565b5b6040519080825280601f01601f1916602001820160405280156129225781602001600182028036833780820191505090505b509050600082602001820190505b600115612985578080600190039150507f3031323334353637383961626364656600000000000000000000000000000000600a86061a8153600a8581612979576129786145f4565b5b04945060008503612930575b819350505050919050565b6001811115612ab057600073ffffffffffffffffffffffffffffffffffffffff168473ffffffffffffffffffffffffffffffffffffffff1614612a245780600360008673ffffffffffffffffffffffffffffffffffffffff1673ffffffffffffffffffffffffffffffffffffffff1681526020019081526020016000206000828254612a1c91906139af565b925050819055505b600073ffffffffffffffffffffffffffffffffffffffff168373ffffffffffffffffffffffffffffffffffffffff1614612aaf5780600360008573ffffffffffffffffffffffffffffffffffffffff1673ffffffffffffffffffffffffffffffffffffffff1681526020019081526020016000206000828254612aa79190614623565b925050819055505b5b50505050565b6008805490506009600083815260200190815260200160002081905550600881908060018154018082558091505060019003906000526020600020016000909190919091505550565b60006001612b0c84610d63565b612b1691906139af565b9050600060076000848152602001908152602001600020549050818114612bfb576000600660008673ffffffffffffffffffffffffffffffffffffffff1673ffffffffffffffffffffffffffffffffffffffff168152602001908152602001600020600084815260200190815260200160002054905080600660008773ffffffffffffffffffffffffffffffffffffffff1673ffffffffffffffffffffffffffffffffffffffff168152602001908152602001600020600084815260200190815260200160002081905550816007600083815260200190815260200160002081905550505b6007600084815260200190815260200160002060009055600660008573ffffffffffffffffffffffffffffffffffffffff1673ffffffffffffffffffffffffffffffffffffffff16815260200190815260200160002060008381526020019081526020016000206000905550505050565b60006001600880549050612c8091906139af565b9050600060096000848152602001908152602001600020549050600060088381548110612cb057612caf613951565b5b906000526020600020015490508060088381548110612cd257612cd1613951565b5b906000526020600020018190555081600960008381526020019081526020016000208190555060096000858152602001908152602001600020600090556008805480612d2157612d20614657565b5b6001900381819060005260206000200160009055905550505050565b6000612d4883610d63565b905081600660008573ffffffffffffffffffffffffffffffffffffffff1673ffffffffffffffffffffffffffffffffffffffff168152602001908152602001600020600083815260200190815260200160002081905550806007600084815260200190815260200160002081905550505050565b600080600090507a184f03e93ff9f4daa797ed6e38ed64bf6a1f0100000000000000008310612e1a577a184f03e93ff9f4daa797ed6e38ed64bf6a1f0100000000000000008381612e1057612e0f6145f4565b5b0492506040810190505b6d04ee2d6d415b85acef81000000008310612e57576d04ee2d6d415b85acef81000000008381612e4d57612e4c6145f4565b5b0492506020810190505b662386f26fc100008310612e8657662386f26fc100008381612e7c57612e7b6145f4565b5b0492506010810190505b6305f5e1008310612eaf576305f5e1008381612ea557612ea46145f4565b5b0492506008810190505b6127108310612ed4576127108381612eca57612ec96145f4565b5b0492506004810190505b60648310612ef75760648381612eed57612eec6145f4565b5b0492506002810190505b600a8310612f06576001810190505b80915050919050565b6000604051905090565b600080fd5b600080fd5b60007fffffffff0000000000000000000000000000000000000000000000000000000082169050919050565b612f5881612f23565b8114612f6357600080fd5b50565b600081359050612f7581612f4f565b92915050565b600060208284031215612f9157612f90612f19565b5b6000612f9f84828501612f66565b91505092915050565b60008115159050919050565b612fbd81612fa8565b82525050565b6000602082019050612fd86000830184612fb4565b92915050565b600081519050919050565b600082825260208201905092915050565b60005b83811015613018578082015181840152602081019050612ffd565b60008484015250505050565b6000601f19601f8301169050919050565b600061304082612fde565b61304a8185612fe9565b935061305a818560208601612ffa565b61306381613024565b840191505092915050565b600060208201905081810360008301526130888184613035565b905092915050565b6000819050919050565b6130a381613090565b81146130ae57600080fd5b50565b6000813590506130c08161309a565b92915050565b6000602082840312156130dc576130db612f19565b5b60006130ea848285016130b1565b91505092915050565b600073ffffffffffffffffffffffffffffffffffffffff82169050919050565b600061311e826130f3565b9050919050565b61312e81613113565b82525050565b60006020820190506131496000830184613125565b92915050565b61315881613113565b811461316357600080fd5b50565b6000813590506131758161314f565b92915050565b6000806040838503121561319257613191612f19565b5b60006131a085828601613166565b92505060206131b1858286016130b1565b9150509250929050565b6131c481613090565b82525050565b60006020820190506131df60008301846131bb565b92915050565b6000806000606084860312156131fe576131fd612f19565b5b600061320c86828701613166565b935050602061321d86828701613166565b925050604061322e868287016130b1565b9150509250925092565b60006020828403121561324e5761324d612f19565b5b600061325c84828501613166565b91505092915050565b600080fd5b600080fd5b600080fd5b60008083601f84011261328a57613289613265565b5b8235905067ffffffffffffffff8111156132a7576132a661326a565b5b6020830191508360018202830111156132c3576132c261326f565b5b9250929050565b600080602083850312156132e1576132e0612f19565b5b600083013567ffffffffffffffff8111156132ff576132fe612f1e565b5b61330b85828601613274565b92509250509250929050565b6000819050919050565b600061333c613337613332846130f3565b613317565b6130f3565b9050919050565b600061334e82613321565b9050919050565b600061336082613343565b9050919050565b61337081613355565b82525050565b600060208201905061338b6000830184613367565b92915050565b600081519050919050565b600082825260208201905092915050565b60006133b882613391565b6133c2818561339c565b93506133d2818560208601612ffa565b6133db81613024565b840191505092915050565b60006040820190506133fb6000830185612fb4565b818103602083015261340d81846133ad565b90509392505050565b6000819050919050565b61342981613416565b82525050565b60006020820190506134446000830184613420565b92915050565b61345381612fa8565b811461345e57600080fd5b50565b6000813590506134708161344a565b92915050565b6000806040838503121561348d5761348c612f19565b5b600061349b85828601613166565b92505060206134ac85828601613461565b9150509250929050565b600080fd5b7f4e487b7100000000000000000000000000000000000000000000000000000000600052604160045260246000fd5b6134f382613024565b810181811067ffffffffffffffff82111715613512576135116134bb565b5b80604052505050565b6000613525612f0f565b905061353182826134ea565b919050565b600067ffffffffffffffff821115613551576135506134bb565b5b61355a82613024565b9050602081019050919050565b82818337600083830152505050565b600061358961358484613536565b61351b565b9050828152602081018484840111156135a5576135a46134b6565b5b6135b0848285613567565b509392505050565b600082601f8301126135cd576135cc613265565b5b81356135dd848260208601613576565b91505092915050565b60008060008060808587031215613600576135ff612f19565b5b600061360e87828801613166565b945050602061361f87828801613166565b9350506040613630878288016130b1565b925050606085013567ffffffffffffffff81111561365157613650612f1e565b5b61365d878288016135b8565b91505092959194509250565b600080604083850312156136805761367f612f19565b5b600061368e85828601613166565b925050602061369f85828601613166565b9150509250929050565b7f4e487b7100000000000000000000000000000000000000000000000000000000600052602260045260246000fd5b600060028204905060018216806136f057607f821691505b602082108103613703576137026136a9565b5b50919050565b7f4552433732313a20617070726f76616c20746f2063757272656e74206f776e6560008201527f7200000000000000000000000000000000000000000000000000000000000000602082015250565b6000613765602183612fe9565b915061377082613709565b604082019050919050565b6000602082019050818103600083015261379481613758565b9050919050565b7f4552433732313a20617070726f76652063616c6c6572206973206e6f7420746f60008201527f6b656e206f776e6572206f7220617070726f76656420666f7220616c6c000000602082015250565b60006137f7603d83612fe9565b91506138028261379b565b604082019050919050565b60006020820190508181036000830152613826816137ea565b9050919050565b7f4552433732313a2063616c6c6572206973206e6f7420746f6b656e206f776e6560008201527f72206f7220617070726f76656400000000000000000000000000000000000000602082015250565b6000613889602d83612fe9565b91506138948261382d565b604082019050919050565b600060208201905081810360008301526138b88161387c565b9050919050565b7f455243373231456e756d657261626c653a206f776e657220696e646578206f7560008201527f74206f6620626f756e6473000000000000000000000000000000000000000000602082015250565b600061391b602b83612fe9565b9150613926826138bf565b604082019050919050565b6000602082019050818103600083015261394a8161390e565b9050919050565b7f4e487b7100000000000000000000000000000000000000000000000000000000600052603260045260246000fd5b7f4e487b7100000000000000000000000000000000000000000000000000000000600052601160045260246000fd5b60006139ba82613090565b91506139c583613090565b92508282039050818111156139dd576139dc613980565b5b92915050565b7f455243373231456e756d657261626c653a20676c6f62616c20696e646578206f60008201527f7574206f6620626f756e64730000000000000000000000000000000000000000602082015250565b6000613a3f602c83612fe9565b9150613a4a826139e3565b604082019050919050565b60006020820190508181036000830152613a6e81613a32565b9050919050565b7f4552433732313a20696e76616c696420746f6b656e2049440000000000000000600082015250565b6000613aab601883612fe9565b9150613ab682613a75565b602082019050919050565b60006020820190508181036000830152613ada81613a9e565b9050919050565b7f4552433732313a2061646472657373207a65726f206973206e6f74206120766160008201527f6c6964206f776e65720000000000000000000000000000000000000000000000602082015250565b6000613b3d602983612fe9565b9150613b4882613ae1565b604082019050919050565b60006020820190508181036000830152613b6c81613b30565b9050919050565b600069ffffffffffffffffffff82169050919050565b613b9281613b73565b8114613b9d57600080fd5b50565b600081519050613baf81613b89565b92915050565b613bbe81613416565b8114613bc957600080fd5b50565b600081519050613bdb81613bb5565b92915050565b600081519050613bf08161309a565b92915050565b600080600080600060a08688031215613c1257613c11612f19565b5b6000613c2088828901613ba0565b9550506020613c3188828901613bcc565b9450506040613c4288828901613be1565b9350506060613c5388828901613be1565b9250506080613c6488828901613ba0565b9150509295509295909350565b7f4f776e61626c653a206e6577206f776e657220697320746865207a65726f206160008201527f6464726573730000000000000000000000000000000000000000000000000000602082015250565b6000613ccd602683612fe9565b9150613cd882613c71565b604082019050919050565b60006020820190508181036000830152613cfc81613cc0565b9050919050565b7f4f776e61626c653a2063616c6c6572206973206e6f7420746865206f776e6572600082015250565b6000613d39602083612fe9565b9150613d4482613d03565b602082019050919050565b60006020820190508181036000830152613d6881613d2c565b9050919050565b7f4552433732313a207472616e736665722066726f6d20696e636f72726563742060008201527f6f776e6572000000000000000000000000000000000000000000000000000000602082015250565b6000613dcb602583612fe9565b9150613dd682613d6f565b604082019050919050565b60006020820190508181036000830152613dfa81613dbe565b9050919050565b7f4552433732313a207472616e7366657220746f20746865207a65726f2061646460008201527f7265737300000000000000000000000000000000000000000000000000000000602082015250565b6000613e5d602483612fe9565b9150613e6882613e01565b604082019050919050565b60006020820190508181036000830152613e8c81613e50565b9050919050565b7f45524337323155524953746f726167653a2055524920736574206f66206e6f6e60008201527f6578697374656e7420746f6b656e000000000000000000000000000000000000602082015250565b6000613eef602e83612fe9565b9150613efa82613e93565b604082019050919050565b60006020820190508181036000830152613f1e81613ee2565b9050919050565b60008190508160005260206000209050919050565b60006020601f8301049050919050565b600082821b905092915050565b600060088302613f877fffffffffffffffffffffffffffffffffffffffffffffffffffffffffffffffff82613f4a565b613f918683613f4a565b95508019841693508086168417925050509392505050565b6000613fc4613fbf613fba84613090565b613317565b613090565b9050919050565b6000819050919050565b613fde83613fa9565b613ff2613fea82613fcb565b848454613f57565b825550505050565b600090565b614007613ffa565b614012818484613fd5565b505050565b5b818110156140365761402b600082613fff565b600181019050614018565b5050565b601f82111561407b5761404c81613f25565b61405584613f3a565b81016020851015614064578190505b61407861407085613f3a565b830182614017565b50505b505050565b600082821c905092915050565b600061409e60001984600802614080565b1980831691505092915050565b60006140b7838361408d565b9150826002028217905092915050565b6140d082612fde565b67ffffffffffffffff8111156140e9576140e86134bb565b5b6140f382546136d8565b6140fe82828561403a565b600060209050601f831160018114614131576000841561411f578287015190505b61412985826140ab565b865550614191565b601f19841661413f86613f25565b60005b8281101561416757848901518255600182019150602085019450602081019050614142565b868310156141845784890151614180601f89168261408d565b8355505b6001600288020188555050505b505050505050565b600060808201905081810360008301526141b38187613035565b90506141c260208301866131bb565b81810360408301526141d48185613035565b905081810360608301526141e88184613035565b905095945050505050565b60006141fe82613090565b91507fffffffffffffffffffffffffffffffffffffffffffffffffffffffffffffffff82036142305761422f613980565b5b600182019050919050565b7f4552433732313a20617070726f766520746f2063616c6c657200000000000000600082015250565b6000614271601983612fe9565b915061427c8261423b565b602082019050919050565b600060208201905081810360008301526142a081614264565b9050919050565b7f4552433732313a207472616e7366657220746f206e6f6e20455243373231526560008201527f63656976657220696d706c656d656e7465720000000000000000000000000000602082015250565b6000614303603283612fe9565b915061430e826142a7565b604082019050919050565b60006020820190508181036000830152614332816142f6565b9050919050565b600081905092915050565b600061434f82612fde565b6143598185614339565b9350614369818560208601612ffa565b80840191505092915050565b60006143818285614344565b915061438d8284614344565b91508190509392505050565b60006143a58284614344565b915081905092915050565b600060608201905081810360008301526143ca8186613035565b905081810360208301526143de8185613035565b905081810360408301526143f28184613035565b9050949350505050565b60006080820190506144116000830187613125565b61441e6020830186613125565b61442b60408301856131bb565b818103606083015261443d81846133ad565b905095945050505050565b60008151905061445781612f4f565b92915050565b60006020828403121561447357614472612f19565b5b600061448184828501614448565b91505092915050565b7f455243373231456e756d657261626c653a20636f6e736563757469766520747260008201527f616e7366657273206e6f7420737570706f727465640000000000000000000000602082015250565b60006144e6603583612fe9565b91506144f18261448a565b604082019050919050565b60006020820190508181036000830152614515816144d9565b9050919050565b7f4552433732313a206d696e7420746f20746865207a65726f2061646472657373600082015250565b6000614552602083612fe9565b915061455d8261451c565b602082019050919050565b6000602082019050818103600083015261458181614545565b9050919050565b7f4552433732313a20746f6b656e20616c7265616479206d696e74656400000000600082015250565b60006145be601c83612fe9565b91506145c982614588565b602082019050919050565b600060208201905081810360008301526145ed816145b1565b9050919050565b7f4e487b7100000000000000000000000000000000000000000000000000000000600052601260045260246000fd5b600061462e82613090565b915061463983613090565b925082820190508082111561465157614650613980565b5b92915050565b7f4e487b7100000000000000000000000000000000000000000000000000000000600052603160045260246000fdfea2646970667358221220ec519b0695c6bffbc3ab115fca29f4c845740ea67b6acdca4bf298d1430f785164736f6c6343000811003368747470733a2f2f697066732e696f2f697066732f516d646355526d4e316b4545744b676e626b564a4a3868726d73535748705a764c6b5267734b4b6f6957765739673f66696c656e616d653d73696d706c655f62756c6c2e6a736f6e68747470733a2f2f697066732e696f2f697066732f516d5258796669336f4e5a43756244786956467265336b4c5a3858654774367051736e4151525a37616b68534e733f66696c656e616d653d67616d65725f62756c6c2e6a736f6e68747470733a2f2f697066732e696f2f697066732f516d624b68425856576d777259735450465966726f52324e374e41656b414d78485556673243576b73376939716a3f66696c656e616d653d73696d706c655f626561722e6a736f6e68747470733a2f2f697066732e696f2f697066732f516d6478394878374643445a474578796a4c52367659636e75745552384b68425a426e5a6641504869556f6d6d4e3f66696c656e616d653d6265616e69655f626561722e6a736f6e68747470733a2f2f697066732e696f2f697066732f516d524a5646654d7274595332435556554d3263484a70425635615832787572706e73665a784c545451626944333f66696c656e616d653d70617274795f62756c6c2e6a736f6e68747470733a2f2f697066732e696f2f697066732f516d54564c79545375694b4755456d6238384267584733714e4338596770485a6946626a4872584b4833514845753f66696c656e616d653d636f6f6c696f5f626561722e6a736f6e",
  "linkReferences": {},
  "deployedLinkReferences": {}
}